:03000000020DB23C
:0100030032CA
:03000B0002064B9F
:0100130032BA
:03001B0002067664
:0100230032AA
:03005B000206D3C7
:10005E00C0E0C0D0C000C001C002E4F540F541F5DB
:10006E0042F543F5447A20E533A2E779047830E689
:10007E0033F608D9FA79057840E636D4F608D9F978
:10008E00DAE5D002D001D000D0D0D0E022C0E0C05E
:10009E00D0C000C001C002E4F540F541F542F54381
:1000AE00F5447A20E533A2E779047830E633F60892
:1000BE00D9FA79057840C0D0E6243320E70224D05F
:1000CE0020E30224FDD0D033F608D9EADAD6D002E6
:1000DE00D001D000D0D0D0E022C0E0C0D0C000C04F
:1000EE0001C0027A207905C37844E613C0D030E708
:1000FE000224D030E30224FDF618D0D0D9EC7904D6
:10010E007833E613F618D9FADADBD002D001D00034
:10011E00D0D0D0E022C0E0C0D0E5302534F530E5B7
:10012E00313535F531E5323536F532E5333537F5DE
:10013E0033D0D0D0E022C0E0C0D0C3E5309534F546
:10014E0030E5319535F531E5329536F532E53395B5
:10015E0037F533D0D0D0E022C0E0C0D0C3E5309523
:10016E0034E5319535E5329536E53395379202D043
:10017E00D0D0E022C0E0C0D0C3E5349530E535954F
:10018E0031E5369532E53795339202D0D0D0E02264
:10019E00C0E0C0D0C202C3E53495307014E5359589
:1001AE0031700EE53695327008E53795337002D210
:1001BE0002D0D0D0E02212019E2002030201822240
:1001CE0012019E20020302016622C0E0C0F0C0D0E0
:1001DE00C000C001C002C003E5308534F0A4F8A908
:1001EE00F0E5318534F0A429F9E435F0FAE53085EF
:1001FE0035F0A429F9E5F03AFAE433FBE53285341B
:10020E00F0A42AFAE5F03BFBE5318535F0A42AFA95
:10021E00E5F03BFBE5308536F0A42AFAE5F03BFB32
:10022E00E5338534F0A42BFBE5328535F0A42BFBAA
:10023E00E5318536F0A42BFBE5308537F0A42BFB9A
:10024E008B338A3289318830D003D002D001D0006E
:10025E00D0D0D0F0D0E022C0E0C0D0C000C001C0ED
:10026E0002C003C0047C20E4F8F9FAFBC3E5303386
:10027E00F530E53133F531E53233F532E53333F52B
:10028E0033E833F8E933F9EA33FAEB33FBC3E89595
:10029E0034E99535EA9536EB95374013E89534F801
:1002AE00E99535F9EA9536FAEB9537FB433001DCE3
:1002BE00BBD004D003D002D001D000D0D0D0E022E9
:1002CE00C000784AD8FED00022C000C001790A785A
:1002DE00B8D8FED9FADAF6D001D00022D2871202AF
:1002EE00CEC2871202CE22A2E79296A2E69294A2E4
:1002FE00E59293A2E492921202EAA2E39296A2E20D
:10030E009294A2E19293A2E092921202EA22D285F4
:10031E000202F5C2850202F5C287C286C0027A28A1
:10032E001202D7D0027433120321743312032174D4
:10033E00321203217428120321740C12032174014A
:10034E00120321C0027A021202D7D00222E4936075
:10035E000612031CA380F62244404480020321C0EF
:10036E00E0E8C4540F443012031CE8540F4430121A
:10037E00031CD0E022C0E0E8C4540F4430120457EE
:10038E00E8540F4430120457D0E0220D0A0020200A
:10039E00202020200D0A0020202020202020202098
:1003AE0020202020202020002020202020205465E6
:1003BE00737432202020202000202020202020486E
:1003CE004F5420202020202020003A0074696D65B3
:1003DE000031004243445F636F756E7465723A205C
:1003EE007878200054656D703A00430054696D654D
:1003FE002078783A787820534554202000202053D6
:10040E004F414B20205245464C4F572020005465FB
:10041E006D70002A5245464C4F572A0054696D653F
:10042E0000484F4D450054656D7000202A534F41D2
:10043E004B2A0054696D652020202020202020208A
:10044E0020202000484F4D450010990280FBF59961
:10045E002210980280FBE599227AAC79FA78A6D818
:10046E00FED9FADAF62230313233343536373839AE
:10047E00414243444546900474E541C4540F9312DF
:10048E000457E541540F93120457742E120457E586
:10049E0040C4540F93120457E540540F931204575F
:1004AE00740D120457740A12045722E49360061254
:1004BE000457A380F6220D0A00854030120484C032
:1004CE00E0740514120368D0E0C000A84112036D59
:1004DE00D000C0E0740714120368D0E0C000A8403A
:1004EE0012036DD000C0E0740814120368D0E0C08F
:1004FE00E0740A14120368D0E0C083C082C0E0909A
:10050E0003F812035BD0E0D082D08322758400758D
:10051E00850075910075920075A40075A50075B1E2
:10052E000075B2002275BD0075BF0075BE3075BD79
:10053E000375985275910075920022C0E079007A89
:10054E0008E833F892B1D282A283E933F9C282DA93
:10055E00F0D0E022C2977801120549788012054941
:10056E00E95403F53B7855120549893AD297C2975B
:10057E0078011205497890120549E95403F53D7842
:10058E0055120549893CD297853A30853B317532F3
:10059E000075330075349A75350175360075370060
:1005AE001201D87534FF7535037536007537001294
:1005BE0002657534117535017536007537001201F7
:1005CE004412005E853C30853D3175320075330036
:1005DE0075344075354275360F7537001201D87572
:1005EE003454753501753600753700120265753451
:1005FE002975350075360075370012026575344061
:10060E0075351F7536007537001201237534027566
:10061E00350175360075370012026512005E300C1A
:10062E0008C20C1204C712048422E58954F0440156
:10063E00F589758C6F758AFFD2A9D28C22758C6F55
:10064E00758AFFC0E0C0D00561E561B43202D20CFC
:10065E00D0D0D0E032E589540F4410F589758D6FF6
:10066E00758BFFD2ABD28E22758D6F758BFFC0E06E
:10067E00C0D00560E560954ED45005D281C380058B
:10068E00C281C38000E560B4641F054CE54CD4F50F
:10069E004C0569E569D4F569E54C85E066D20375CC
:1006AE006000E55A2401D4F55AD0D0D0E03275CD91
:1006BE00FE75CCB275CFFE75CEB275F98075C98058
:1006CE00D2ECD2C82275E900C0E0C0D0E562456325
:1006DE004564601574FF1562B562071563B5630254
:1006EE001564120727F5F58006C2C8D2A4C2A7D09A
:1006FE00D0D0E03243841043851075A1287597043D
:10070E0075F5802222D283C28253A4CB43A53443F3
:10071E00A40853A5F775E2D022F5E3E5E130E7FB37
:10072E00F5E1E5E322C2A47406120727D2A422C281
:10073E00A474051207277455120727D2A420E0EFE0
:10074E0022C0E075F00A84443012031CE5F04430F8
:10075E0012031CD0E02200002D00310700700700AC
:10076E00ADB900F2660135D5017D3301C7610212C4
:10077E00790249C1028F7A02D063031B8703630E8D
:10078E0003B95F04113A0466C404C0120526980525
:10079E0074E905D28E061D8306634206AAB906F3D6
:1007AE00D6073F020030DA003F00003DB20044ADF4
:1007BE0000436F00475E004A2E004B18003748007A
:1007CE0045B90040E9004B240047870056510057B9
:1007DE00DB00558A00594E006686004E51005DA51D
:1007EE00004AF50045BF00477700491D004B2C001D
:1007FE005C87D2A7C2C8D2A475F003A4F8C2A474B1
:10080E0003120727900764E893120727A3E89312B1
:10081E000727A3E8931207279007B2E893F564A37E
:10082E00E893F563A3E893F5627400120727D2C824
:10083E0022E567B4001330000FC3E565941450052C
:10084E00756701800375670322B40109E565120817
:10085E000075670222B4020720C80375670622B42A
:10086E00030FE56575F00A842412120800756704FB
:10087E0022B4040720C80375670522B40511E56587
:10088E0075F00A84E5F0600312080075670222B461
:10089E000609741812080075670722B4071320C8DA
:1008AE000FC3E56694145005756708809B75670A3B
:1008BE0022B40809E56612080075670922B4090713
:1008CE0020C80375670D22B40A0FE56675F00A8419
:1008DE00241212080075670B22B40B0720C803758B
:1008EE00670C22B40C11E56675F00A84E5F060031E
:1008FE0012080075670922B40D09741912080075E3
:10090E00670E22B40E0920C805C200756700227555
:10091E006700C20022C0E0740114120368D0E0C068
:10092E0083C082C0E09003F212035BD0E0D082D08D
:10093E008322C28EE4756000F55AD28E22C0E07416
:10094E000114120366D0E0C083C082C0E09003FAA7
:10095E0012035BD0E0D082D083C203C0E0740914CE
:10096E00120366D0E0C000A85A12036DD000C0E09A
:10097E00740614120366D0E0C000A86512036DD091
:10098E000022E55AB4600AE5652401D4F565120922
:10099E004022E565B4600AC28EE4756000F565D24A
:1009AE008E2220A718C0027A321202D7D00220A7B8
:1009BE000C30A7FD755A0075650012094B300309FE
:1009CE001209901209A012094B1209232220A0111C
:1009DE00C0027A0A1202D7D00220A00530A0FDB2C2
:1009EE0009200906120AB80209FB120B01C0E074B5
:1009FE000514120368D0E0C000A85112036DD00098
:100A0E00C0E0740714120368D0E0C000A8521203AD
:100A1E006DD000C0E0740114120368D0E0C083C032
:100A2E0082C0E090041C12035BD0E0D082D083C061
:100A3E00E0740914120368D0E0C083C082C0E09055
:100A4E00042112035BD0E0D082D083C0E074011485
:100A5E00120366D0E0C083C082C0E090042A120365
:100A6E005BD0E0D082D083C0E0740C14120366D049
:100A7E00E0C083C082C0E090042F12035BD0E0D0B0
:100A8E0082D083C0E0740914120366D0E0C000A8BF
:100A9E005612036DD000C0E0740714120366D0E046
:100AAE00C000A85512036DD0002220A121C0027AE9
:100ABE000A1202D7D00220A11530A1FDE55624015D
:100ACE00D4F556E5567007E5552401D4F55520A604
:100ADE0021C0027A0A1202D7D00220A61530A6FD36
:100AEE00E5562499D4F556E5567007E5552499D464
:100AFE00F5552220A121C0027A0A1202D7D0022077
:100B0E00A11530A1FDE5522401D4F552E55270072E
:100B1E00E5512401D4F55120A621C0027A0A120211
:100B2E00D7D00220A61530A6FDE5522499D4F55251
:100B3E00E5527007E5512499D4F5512220A011C039
:100B4E00027A0A1202D7D00220A00530A0FDB20A06
:100B5E00200A06120C27020B6A120C70C0E07405F4
:100B6E0014120368D0E0C000A85312036DD000C069
:100B7E00E0740714120368D0E0C000A85412036D8D
:100B8E00D000C0E0740114120368D0E0C083C082AC
:100B9E00C0E090043412035BD0E0D082D083C0E07A
:100BAE00740914120368D0E0C083C082C0E09004C0
:100BBE003912035BD0E0D082D083C0E074011412EE
:100BCE000366D0E0C083C082C0E090044112035B94
:100BDE00D0E0D082D083C0E0740C14120366D0E053
:100BEE00C083C082C0E090045212035BD0E0D0827A
:100BFE00D083C0E0740914120366D0E0C000A85878
:100C0E0012036DD000C0E0740714120366D0E0C06A
:100C1E0000A85712036DD0002220A121C0027A0A2B
:100C2E001202D7D00220A11530A1FDE5582401D41F
:100C3E00F558E5587007E5572401D4F55720A6213D
:100C4E00C0027A0A1202D7D00220A61530A6FDE500
:100C5E00582499D4F558E5587007E5572499D4F5DA
:100C6E00572220A121C0027A0A1202D7D00220A157
:100C7E001530A1FDE5542401D4F554E5547007E573
:100C8E00532401D4F55320A621C0027A0A1202D7AA
:100C9E00D00220A61530A6FDE5542499D4F554E5CE
:100CAE00547007E5532499D4F55322C0E07401140F
:100CBE00120368D0E0C083C082C0E090040B120320
:100CCE005BD0E0D082D083C0E0740114120366D0F2
:100CDE00E0C083C082C0E09003A512035BD0E0D0D9
:100CEE0082D08322E54AB4001E20A015C0027A0AE3
:100CFE001202D7D00220A00930A0FD754A01020DC4
:100D0E00121209B0020DB1B4014B120CB9120990B6
:100D1E001209A020A712C0027A0A1202D7D002200E
:100D2E00A70630A7FD754A0020A112C0027A0A124A
:100D3E0002D7D00220A10630A1FD754A0220A612CC
:100D4E00C0027A0A1202D7D00220A60630A6FD757E
:100D5E004A03020DB1B402211209DB1209901209E5
:100D6E00A020A712C0027A0A1202D7D00220A7062C
:100D7E0030A7FD754A00020DB1B40303020D9002B7
:100D8E000CF4120B4A1209901209A020A712C002ED
:100D9E007A0A1202D7D00220A70630A7FD754A00A4
:100DAE00020DB12275817F12063812066312051AE2
:100DBE001203261207121207021206BC120713D2D2
:100DCE00AFC200756700758400758500759100755A
:100DDE00920075A40075A50075B10075B200756618
:100DEE0000D203C20C755A00754E00754C00754941
:100DFE0000754B967546057547DC7545057569009A
:100E0E00755C00755D00756500754A00C208755108
:100E1E0001755250C20975570075585075550075B9
:100E2E005650755301755101755250C209755700D0
:100E3E00755850755500755650755301755101759D
:100E4E005250C20975570075585075550075565059
:100E5E00755301755101755250C209755700755879
:100E6E005075550075565075530175510175525098
:100E7E00C209755700755850755500755650755303
:100E8E0001755101755250C209755700755850754C
:100E9E005500755650755301755101755250C20962
:100EAE007557007558507555007556507553017528
:100EBE005450C20B12051A12053375A40075A50005
:100ECE00120CF212083F20A614C0027A321202D778
:100EDE00D00220A60830A6FDC28E020ECE120562EA
:100EEE00E549B40013754E00C28E20B00830B0FD37
:100EFE00D28E754901020ECEB4011A754E64754C30
:100F0E0000C3E5549541500AC3E55395405003750F
:100F1E004902020ECEB40210754E14C3E557954C1D
:100F2E005003754903020ECEB4031C754E00754C6A
:100F3E0000C3E5529541500CC3E551954050055004
:100F4E0003754904020ECEB40410754E28E548C34D
:100F5E00954C5003754905020ECEB40585754E6449
:0B0F6E00C3954B5003754900020ECEE6
:00000001FF
