:03000000020D6D81
:0100030032CA
:03000B0002046785
:0100130032BA
:03001B000204924A
:0100230032AA
:03005B000204EFAD
:10005E00C0E0C0D0C000C001C002E4F53CF53DF5E3
:10006E003EF53FF5407A20E537A2E779047834E68D
:10007E0033F608D9FA7905783CE636D4F608D9F97C
:10008E00DAE5D002D001D000D0D0D0E022C0E0C05E
:10009E00D0C000C001C002E4F53CF53DF53EF53F91
:1000AE00F5407A20E537A2E779047834E633F6088E
:1000BE00D9FA7905783CC0D0E6243320E70224D063
:1000CE0020E30224FDD0D033F608D9EADAD6D002E6
:1000DE00D001D000D0D0D0E022C0E0C0D0C000C04F
:1000EE0001C0027A207905C37840E613C0D030E70C
:1000FE000224D030E30224FDF618D0D0D9EC7904D6
:10010E007837E613F618D9FADADBD002D001D00030
:10011E00D0D0D0E022C0E0C0D0E5342538F534E5AB
:10012E00353539F535E536353AF536E537353BF5BE
:10013E0037D0D0D0E022C0E0C0D0C3E5349538F53A
:10014E0034E5359539F535E536953AF536E5379595
:10015E003BF537D0D0D0E022C0E0C0D0C3E5349517
:10016E0038E5359539E536953AE537953B9202D027
:10017E00D0D0E022C0E0C0D0C3E5389534E5399543
:10018E0035E53A9536E53B95379202D0D0D0E02250
:10019E00C0E0C0D0C202C3E53895347014E539957D
:1001AE0035700EE53A95367008E53B95377002D2FC
:1001BE0002D0D0D0E02212019E2002030201822240
:1001CE0012019E20020302016622C0E0C0F0C0D0E0
:1001DE00C000C001C002C003E5348538F0A4F8A900
:1001EE00F0E5358538F0A429F9E435F0FAE53485E3
:1001FE0039F0A429F9E5F03AFAE433FBE53685380F
:10020E00F0A42AFAE5F03BFBE5358539F0A42AFA8D
:10021E00E5F03BFBE534853AF0A42AFAE5F03BFB2A
:10022E00E5378538F0A42BFBE5368539F0A42BFB9A
:10023E00E535853AF0A42BFBE534853BF0A42BFB8A
:10024E008B378A3689358834D003D002D001D0005E
:10025E00D0D0D0F0D0E022C0E0C0D0C000C001C0ED
:10026E0002C003C0047C20E4F8F9FAFBC3E5343382
:10027E00F534E53533F535E53633F536E53733F513
:10028E0037E833F8E933F9EA33FAEB33FBC3E89591
:10029E0038E99539EA953AEB953B4013E89538F8ED
:1002AE00E99539F9EA953AFAEB953BFB433401DCD3
:1002BE00BBD004D003D002D001D000D0D0D0E022E9
:1002CE00C000784AD8FED00022C000C001790A785A
:1002DE00B8D8FED9FADAF6D001D00022D2871202AF
:1002EE00CEC2871202CE22A2E79296A2E69294A2E4
:1002FE00E59293A2E492921202EAA2E39296A2E20D
:10030E009294A2E19293A2E092921202EA22D285F4
:10031E000202F5C2850202F5C287C286C0027A28A1
:10032E001202D7D0027433120321743312032174D4
:10033E00321203217428120321740C12032174014A
:10034E00120321C0027A021202D7D00222E4936075
:10035E000612031CA380F62244404480020321C0EF
:10036E00E0E8C4540F443012031CE8540F4430121A
:10037E00031CD0E022C0E0E8C4540F4430120552F2
:10038E00E8540F4430120552D0E0220D0A0020200E
:10039E00202020200D0A0020202020202020202098
:1003AE0020202020202020002020202020205465E6
:1003BE00737432202020202000202020202020486E
:1003CE004F5420202020202020003A0074696D65B3
:1003DE000031004243445F636F756E7465723A205C
:1003EE007878200054656D703A7878784320202014
:1003FE00202020200054696D652078783A78782086
:10040E005345542020002020534F414B202052456D
:10041E00464C4F5720200054656D70002A524546B9
:10042E004C4F572A0054696D6500484F4D45005496
:10043E00656D7000202A534F414B2A0054696D653B
:10044E0000484F4D4500E58954F04401F589758CFF
:10045E006F758AFFD2A9D28C22758C6F758AFFC0F8
:10046E00E0C0D0055FE55FB43202D20CD0D0D0E050
:10047E0032E589540F4410F589758D6F758BFFD257
:10048E00ABD28E22758D6F758BFFC0E0C0D0055E2E
:10049E00E55E954AD45005D281C38005C281C380E2
:1004AE0000E55EB4C81F0548E548D4F5480567E584
:1004BE0067D4F567E54885E064D203755E00E558BC
:1004CE002401D4F558D0D0D0E03275CDFE75CCB223
:1004DE0075CFFE75CEB275F98075C980D2ECD2C8D3
:1004EE002275E900C0E0C0D0E56045614562601547
:1004FE0074FF1560B560071561B5610215621206CD
:10050E001AF5F58006C2C8D2A4C2A7D0D0D0E03268
:10051E0075BD0075BF0075BE3075BD0375985275FB
:10052E00910075920022D2A5C2A422C0E079007A71
:10053E0008E833F892A6D2A4A2A5E933F9C2A4DA48
:10054E00F0D0E02210990280FBF5992210980280DB
:10055E00FBE599227A1479FA78A6D8FED9FADAF65A
:10056E0022303132333435363738394142434445FF
:10057E004690056FE53DC4540F93120552E53D5468
:10058E000F93120552742E120552E53CC4540F936C
:10059E00120552E53C540F93120552740D1205527A
:1005AE00740A12055222E4936006120552A380F6D5
:1005BE00220D0A00C000A840120383D000C000A87C
:1005CE003F120383D000C000A83E120383D000C0A8
:1005DE0000A83D120383D000C000A83C120383D0B4
:1005EE00002275840075850075910075920075A4C2
:1005FE000075A50075B10075B200224384104385C5
:10060E001075A12875970475F5802222F5E3E5E1B2
:10061E0030E7FBF5E1E5E322C2A4740612061AD216
:10062E00A422C2A4740512061A745512061AD2A474
:10063E0020E0EF22C0E075F00A84443012031CE57E
:10064E00F0443012031CD0E02200002D00310700D0
:10065E00700700ADB900F2660135D5017D3301C7D3
:10066E00610212790249C1028F7A02D063031B879D
:10067E0003630E03B95F04113A0466C404C0120585
:10068E0026980574E905D28E061D8306634206AAD6
:10069E00B906F3D6073F020030DA003F00003DB244
:1006AE000044AD00436F00475E004A2E004B180019
:1006BE0037480045B90040E9004B240047870056F3
:1006CE00510057DB00558A00594E006686004E5188
:1006DE00005DA5004AF50045BF00477700491D00A3
:1006EE004B2C005C87D2A7C2C8D2A475F003A4F825
:1006FE00C2A4740312061A900657E89312061AA3A0
:10070E00E89312061AA3E89312061A9006A5E89328
:10071E00F562A3E893F561A3E893F5607400120601
:10072E001AD2C822E565B4001330000FC3E56394F6
:10073E00145005756501800375650322B40109E542
:10074E00631206F375650222B4020720C8037565AD
:10075E000622B4030FE56375F00A8424121206F321
:10076E0075650422B4040720C80375650522B40517
:10077E0011E56375F00A84E5F060031206F3756502
:10078E000222B4060974181206F375650722B4071F
:10079E001320C80FC3E56494145005756508809B3B
:1007AE0075650A22B40809E5641206F37565092217
:1007BE00B4090720C80375650D22B40A0FE56475E8
:1007CE00F00A8424121206F375650B22B40B07206F
:1007DE00C80375650C22B40C11E56475F00A84E546
:1007EE00F060031206F375650922B40D097419122F
:1007FE0006F375650E22B40E0920C805C200756594
:10080E000022756500C20022C0E074011412036854
:10081E00D0E0C083C082C0E09003F212035BD0E050
:10082E00D082D08322C28EE4755E00F558D28E221D
:10083E00C0E0740114120366D0E0C083C082C0E031
:10084E0090040312035BD0E0D082D083C203C20CAB
:10085E00C0E0740914120366D0E0C000A858120359
:10086E006DD000C0E0740614120366D0E0C000A87C
:10087E006312036DD00022E558B4600AE5632401CB
:10088E00D4F56312083322E563B4600AC28EE475B0
:10089E005E00F563D28E2220A718C0027A321202B1
:1008AE00D7D00220A70C30A7FD7558007563001233
:1008BE00083E300C0912088512089512083E1208DF
:1008CE00162220A111C0027A0A1202D7D00220A14C
:1008DE000530A1FDB2092009061209C90208F0125D
:1008EE000A11C0E0740514120368D0E0C000A853CA
:1008FE0012036DD000C0E0740714120368D0E0C07C
:10090E0000A85412036DD000C0E0740114120368E5
:10091E00D0E0C083C082C0E090042512035BD0E01B
:10092E00D082D083C0E0740914120368D0E0C08373
:10093E00C082C0E090042A12035BD0E0D082D08344
:10094E00C0E0740114120366D0E0C083C082C0E020
:10095E0090043312035BD0E0D082D083C0E07408E1
:10096E0014120366D0E0C083C082C0E09003D81298
:10097E00035BD0E0D082D083C0E0740C1412036607
:10098E00D0E0C083C082C0E090043812035BD0E098
:10099E00D082D083C0E0740914120366D0E0C00088
:1009AE00A85A12036DD000C0E0740614120366D06C
:1009BE00E0C000A85B12036DD00022208324C00289
:1009CE007A0A1202D7D0022083183083FDE55AB47A
:1009DE00590BE55B2401D4F55BE40209EE2401D446
:1009EE00F55A20A01DC0027A0A1202D7D00220A00A
:1009FE001130A0FDE55AB40004E4020A0E2499D485
:100A0E00F55A22208321C0027A0A1202D7D0022080
:100A1E0083153083FDE5542401D4F554E554700755
:100A2E00E5532401D4F55320A021C0027A0A120204
:100A3E00D7D00220A01530A0FDE5542499D4F5544A
:100A4E00E5547007E5532499D4F5532220A111C023
:100A5E00027A0A1202D7D00220A10530A1FDB20AF5
:100A6E00200A06120B53020A7A120B9BC0E0740581
:100A7E0014120368D0E0C000A85512036DD000C058
:100A8E00E0740714120368D0E0C000A85612036D7C
:100A9E00D000C0E0740114120368D0E0C083C0829D
:100AAE00C0E090043D12035BD0E0D082D083C0E062
:100ABE00740914120368D0E0C083C082C0E09004B1
:100ACE004212035BD0E0D082D083C0E074011412D6
:100ADE000366D0E0C083C082C0E090044A12035B7C
:100AEE00D0E0D082D083C0E0740814120366D0E048
:100AFE00C083C082C0E09003D812035BD0E0D082E6
:100B0E00D083C0E0740C14120366D0E0C083C082A0
:100B1E00C0E090044F12035BD0E0D082D083C0E0DF
:100B2E00740914120366D0E0C000A85C12036DD0E5
:100B3E0000C0E0740614120366D0E0C000A85D1277
:100B4E00036DD00022208324C0027A0A1202D7D06D
:100B5E00022083183083FDE55CB4590BE55D24015A
:100B6E00D4F55DE4020B782401D4F55C20A01DC001
:100B7E00027A0A1202D7D00220A01130A0FDE55C45
:100B8E00B40004E4020B982499D4F55C222083214E
:100B9E00C0027A0A1202D7D0022083153083FDE5F7
:100BAE00562401D4F556E5567007E5552401D4F5C3
:100BBE005520A021C0027A0A1202D7D00220A01519
:100BCE0030A0FDE5562499D4F556E5567007E55547
:100BDE002499D4F55522C0E0740114120368D0E0B4
:100BEE00C083C082C0E090041412035BD0E0D082B8
:100BFE00D083C0E0740114120366D0E0C083C082BB
:100C0E00C0E09003A512035BD0E0D082D08322E532
:100C1E0046B4001E20A115C0027A0A1202D7D002D5
:100C2E0020A10930A1FD754601020C3D1208A50256
:100C3E000CDCB4014B120BE41208851208952082CD
:100C4E0012C0027A0A1202D7D0022082063082FD2A
:100C5E00754600208312C0027A0A1202D7D00220F3
:100C6E0083063083FD75460220A012C0027A0A1256
:100C7E0002D7D00220A00630A0FD754603020CDC80
:100C8E00B402211208D0120885120895208212C0D3
:100C9E00027A0A1202D7D0022082063082FD7546F1
:100CAE0000020CDCB40303020CBB020C1F120A5A26
:100CBE00120885120895208212C0027A0A1202D7F3
:100CCE00D0022082063082FD754600020CDC22C264
:100CDE00A778011205397880120539E95403F54CCD
:100CEE007855120539894BD2A7C2A778011205395A
:100CFE007890120539E95403F54E78551205398965
:100D0E004DD2A7120562854B34854C35753600756C
:100D1E00370075389A753901753A00753B00120126
:100D2E00D87538FF753903753A00753B00120265A8
:100D3E00753811753901753A00753B001201441270
:100D4E00005E854D34854E357536007537001200C0
:100D5E005E1205C2740D120552740A1205522275E6
:100D6E00817F12045412047F1205F012032612041E
:100D7E00D8120534D2AFC200756500758400758532
:100D8E000075910075920075A40075A50075B100EF
:100D9E0075B200756400D203D20C755800754A0006
:100DAE007548007545007547967542057543DC75A7
:100DBE004105756700755A00755B007563007546D1
:100DCE0000C208755301755450C209755C00755DFB
:100DDE0000755501755650C20B1205F012051E75A1
:100DEE00A40075A500120C1D120732C2AF120CDD45
:100DFE00D2AF20A614C0027A321202D7D00220A699
:100E0E000830A6FDC28E020DF3C0E0740A14120360
:100E1E0068D0E0C000A83C12036DD000E545B400D8
:100E2E0013754A00C28E20B00830B0FDD28E7545C3
:100E3E0001020DF3B40113754A64754800E541C310
:100E4E0095475003754502020DF3B40210754A140E
:100E5E00E542C395485003754503020DF3B40313E1
:100E6E00754A50754800E543C395475003754504D0
:100E7E00020DF3B40410754A14E544C395485003AB
:100E8E00754505020DF3B40595754A00C395475097
:070E9E0003754500020DF38E
:00000001FF
