:03000000020750A4
:0100030032CA
:03000B000203C528
:0100130032BA
:03001B000203E1FC
:0100230032AA
:03005B0002045943
:10005E00C0E0C0D0C000C001C002E4F53EF53FF5DF
:10006E0040F541F5427A20E533A2E779047830E68F
:10007E0033F608D9FA7905783EE636D4F608D9F97A
:10008E00DAE5D002D001D000D0D0D0E022C0E0C05E
:10009E00D0C000C001C002E4F53EF53FF540F54189
:1000AE00F5427A20E533A2E779047830E633F60894
:1000BE00D9FA7905783EC0D0E6243320E70224D061
:1000CE0020E30224FDD0D033F608D9EADAD6D002E6
:1000DE00D001D000D0D0D0E022C0E0C0D0C000C04F
:1000EE0001C0027A207905C37842E613C0D030E70A
:1000FE000224D030E30224FDF618D0D0D9EC7904D6
:10010E007833E613F618D9FADADBD002D001D00034
:10011E00D0D0D0E022C0E0C0D0E5302534F530E5B7
:10012E00313535F531E5323536F532E5333537F5DE
:10013E0033D0D0D0E022C0E0C0D0C3E5309534F546
:10014E0030E5319535F531E5329536F532E53395B5
:10015E0037F533D0D0D0E022C0E0C0D0C3E5309523
:10016E0034E5319535E5329536E53395379202D043
:10017E00D0D0E022C0E0C0D0C3E5349530E535954F
:10018E0031E5369532E53795339202D0D0D0E02264
:10019E00C0E0C0D0C202C3E53495307014E5359589
:1001AE0031700EE53695327008E53795337002D210
:1001BE0002D0D0D0E02212019E2002030201822240
:1001CE0012019E20020302016622C0E0C0F0C0D0E0
:1001DE00C000C001C002C003E5308534F0A4F8A908
:1001EE00F0E5318534F0A429F9E435F0FAE53085EF
:1001FE0035F0A429F9E5F03AFAE433FBE53285341B
:10020E00F0A42AFAE5F03BFBE5318535F0A42AFA95
:10021E00E5F03BFBE5308536F0A42AFAE5F03BFB32
:10022E00E5338534F0A42BFBE5328535F0A42BFBAA
:10023E00E5318536F0A42BFBE5308537F0A42BFB9A
:10024E008B338A3289318830D003D002D001D0006E
:10025E00D0D0D0F0D0E022C0E0C0D0C000C001C0ED
:10026E0002C003C0047C20E4F8F9FAFBC3E5303386
:10027E00F530E53133F531E53233F532E53333F52B
:10028E0033E833F8E933F9EA33FAEB33FBC3E89595
:10029E0034E99535EA9536EB95374013E89534F801
:1002AE00E99535F9EA9536FAEB9537FB433001DCE3
:1002BE00BBD004D003D002D001D000D0D0D0E022E9
:1002CE00C000784AD8FED00022C000C001790A785A
:1002DE00B8D8FED9FADAF6D001D00022D2871202AF
:1002EE00CEC2871202CE22A2E79296A2E69294A2E4
:1002FE00E59293A2E492921202EAA2E39296A2E20D
:10030E009294A2E19293A2E092921202EA22D285F4
:10031E000202F5C2850202F5C287C286C0027A28A1
:10032E001202D7D0027433120321743312032174D4
:10033E00321203217428120321740C12032174014A
:10034E00120321C0027A021202D7D00222E4936075
:10035E000612031CA380F62244404480020321C0EF
:10036E00E0E8C4540F443012031CE8540F4430121A
:10037E00031CD0E022C0E0E8C4540F4430120399AD
:10038E00E8540F4430120399D0E02210990280FBFA
:10039E00F599224243445F636F756E7465723A201D
:1003AE0078782000E58954F04401F589758CFC7548
:1003BE008A7CD2A9D28C22758CFC758A7CB2A7322B
:1003CE00E589540F4410F589758D6F758BFFD2AB8F
:1003DE00D28E22758D6F758BFFB2A6C0E0C0D00590
:1003EE0043E543954DD4E54C5005D281C38005C2FB
:1003FE0081C38000E543B4C82B054BE54BD4F54BC8
:10040E000555E555D4F555E54B75510085E052D2AD
:10041E0003B28C754300E54430A404240180022409
:10042E0099D4F544D0D0D0E03274696D6500737400
:10043E006174650075CDFE75CCB275CFFE75CEB20A
:10044E0075F98075C980D2ECD2C82275E900C0E07A
:10045E00C0D0E54E454F4550601574FF154EB54E54
:10046E0007154FB54F021550120557F5F58006C208
:10047E00C8D2A4C2A7D0D0D0E03275840075850052
:10048E0075910075920075A40075A50075B1007583
:10049E00B2002275BD0075BF0075BE3075BD037507
:1004AE00985275910075920022D2A5C2A422C0E086
:1004BE0079007A08E833F892A6D2A4A2A5E933F916
:1004CE00C2A4DAF0D0E02210980280FBE599227ADD
:1004DE001479FA78A6D8FED9FADAF6223031323308
:1004EE00343536373839414243444546E493600645
:1004FE00120399A380F6220D0A00C000A84212032F
:10050E0083D000C000A841120383D000C000A840D1
:10051E00120383D000C000A83F120383D000C00096
:10052E00A83E120383D0002243841043851075A188
:10053E002875970475F580222253A4CB43A5344326
:10054E00A40853A5F775E2D022F5E3E5E130E7FB09
:10055E00F5E1E5E322C2A47406120557D2A422C225
:10056E00A474051205577455120557D2A420E0EF56
:10057E0022C0E075F00A84443012031CE5F04430CA
:10058E0012031CD0E02200002D003107007007007E
:10059E00ADB900F2660135D5017D3301C761021296
:1005AE00790249C1028F7A02D063031B8703630E5F
:1005BE0003B95F04113A0466C404C01205269805F7
:1005CE0074E905D28E061D8306634206AAB906F3A8
:1005DE00D6073F020030DA003F00003DB20044ADC6
:1005EE0000436F00475E004A2E004B18003748004C
:1005FE0045B90040E9004B2400478700565100578B
:10060E00DB00558A00594E006686004E51005DA5EE
:10061E00004AF50045BF00477700491D004B2C00EE
:10062E005C87D2A7C2C8D2A475F003A4F8C2A47482
:10063E0003120557900594E893120557A3E89312F9
:10064E000557A3E8931205579005E2E893F550A3DA
:10065E00E893F54FA3E893F54E7400120557D2C8F0
:10066E0022E553B4001330000FC3E54A941450052D
:10067E00755301800375530322B40109E54A12062E
:10068E003075530222B4020720C80375530922B4F1
:10069E000310C3E54A9464500575530680037553E1
:1006AE000422B4040FE54A75F06484241B1206304C
:1006BE0075530522B4050720C80375530622B406E8
:1006CE000FE54A75F00A842412120630755307227C
:1006DE00B4070720C80375530822B40811E54A75FC
:1006EE00F00A84E5F0600312063075530222B40955
:1006FE000475530A22B40A0720C80375530022C09A
:10070E00E0740114120368D0E0C083C082C0E09090
:10071E00074012035BD0E0D082D083755300C20035
:10072E002253746F702077617463680030303A30F2
:10073E0030004552524F52007431206973720002DC
:10074E0008A075817F1203B21203CE120488120420
:10075E00A175A40075A500120326120546120536D2
:10076E001204421205471204B7C28EC2C8D2AFC2DB
:10077E00A7C2007553007552007401F555C0E074A0
:10078E000114120368D0E0C000A84412036DD0001B
:10079E00D203754400754D00754B00754900754ABE
:1007AE00397546057547DC755500D200D28EE55574
:1007BE00B4018C7400F55512066FC2A778011204AD
:1007CE00BC78801204BCE95403F53978551204BC88
:1007DE008938D2A7C2A778011204BC78901204BC43
:1007EE00E95403F53B78551204BC893AD2A712049A
:1007FE00DD85383085393175320075330075349AA0
:10080E007535017536007537001201D87534FF75D0
:10081E00350375360075370012026575341175355E
:10082E000175360075370012014412005E1205087C
:10083E00740D120399740A120399853A30853B316F
:10084E007532007533007534647535007536007574
:10085E0037001201D875345E753500753600753760
:10086E000012012375345C7535017536007537003D
:10087E0012026575341E7535007536007537001217
:10088E00012312005E120508740D120399740A12E8
:10089E000399C0E0740114120368D0E0C083C082D3
:1008AE00C0E090043712035BD0E0D082D083C0E06A
:1008BE00740514120368D0E0C000A84B12036DD06B
:1008CE0000C0E0740114120366D0E0C083C082C081
:1008DE00E090043C12035BD0E0D082D083C0E07481
:1008EE000514120366D0E0C000A84912036DD000B3
:1008FE00E549B4000F754D0020A00630A0FD7549E6
:10090E00010207BCB40113754D64754B00E545C378
:10091E00954A50037549020207BCB40210754D1476
:10092E00E546C3954B50037549030207BCB4031348
:10093E00754D50754B00E547C3954A5003754904F4
:10094E000207BCB40410754D14E548C3954B500313
:10095E007549050207BCB40599754D00C3954A50FB
:07096E00037549000207BCFC
:00000001FF
