:03000000020CF3FC
:0100030032CA
:03000B000204608C
:0100130032BA
:03001B0002047A62
:0100230032AA
:03005B000204E9B3
:10005E00C0E0C0D0C000C001C002E4F53CF53DF5E3
:10006E003EF53FF5407A20E537A2E779047834E68D
:10007E0033F608D9FA7905783CE636D4F608D9F97C
:10008E00DAE5D002D001D000D0D0D0E022C0E0C05E
:10009E00D0C000C001C002E4F53CF53DF53EF53F91
:1000AE00F5407A20E537A2E779047834E633F6088E
:1000BE00D9FA7905783CC0D0E6243320E70224D063
:1000CE0020E30224FDD0D033F608D9EADAD6D002E6
:1000DE00D001D000D0D0D0E022C0E0C0D0C000C04F
:1000EE0001C0027A207905C37840E613C0D030E70C
:1000FE000224D030E30224FDF618D0D0D9EC7904D6
:10010E007837E613F618D9FADADBD002D001D00030
:10011E00D0D0D0E022C0E0C0D0E5342538F534E5AB
:10012E00353539F535E536353AF536E537353BF5BE
:10013E0037D0D0D0E022C0E0C0D0C3E5349538F53A
:10014E0034E5359539F535E536953AF536E5379595
:10015E003BF537D0D0D0E022C0E0C0D0C3E5349517
:10016E0038E5359539E536953AE537953B9202D027
:10017E00D0D0E022C0E0C0D0C3E5389534E5399543
:10018E0035E53A9536E53B95379202D0D0D0E02250
:10019E00C0E0C0D0C202C3E53895347014E539957D
:1001AE0035700EE53A95367008E53B95377002D2FC
:1001BE0002D0D0D0E02212019E2002030201822240
:1001CE0012019E20020302016622C0E0C0F0C0D0E0
:1001DE00C000C001C002C003E5348538F0A4F8A900
:1001EE00F0E5358538F0A429F9E435F0FAE53485E3
:1001FE0039F0A429F9E5F03AFAE433FBE53685380F
:10020E00F0A42AFAE5F03BFBE5358539F0A42AFA8D
:10021E00E5F03BFBE534853AF0A42AFAE5F03BFB2A
:10022E00E5378538F0A42BFBE5368539F0A42BFB9A
:10023E00E535853AF0A42BFBE534853BF0A42BFB8A
:10024E008B378A3689358834D003D002D001D0005E
:10025E00D0D0D0F0D0E022C0E0C0D0C000C001C0ED
:10026E0002C003C0047C20E4F8F9FAFBC3E5343382
:10027E00F534E53533F535E53633F536E53733F513
:10028E0037E833F8E933F9EA33FAEB33FBC3E89591
:10029E0038E99539EA953AEB953B4013E89538F8ED
:1002AE00E99539F9EA953AFAEB953BFB433401DCD3
:1002BE00BBD004D003D002D001D000D0D0D0E022E9
:1002CE00C000784AD8FED00022C000C001790A785A
:1002DE00B8D8FED9FADAF6D001D00022D2871202AF
:1002EE00CEC2871202CE22A2E79296A2E69294A2E4
:1002FE00E59293A2E492921202EAA2E39296A2E20D
:10030E009294A2E19293A2E092921202EA22D285F4
:10031E000202F5C2850202F5C287C286C0027A28A1
:10032E001202D7D0027433120321743312032174D4
:10033E00321203217428120321740C12032174014A
:10034E00120321C0027A021202D7D00222E4936075
:10035E000612031CA380F62244404480020321C0EF
:10036E00E0E8C4540F443012031CE8540F4430121A
:10037E00031CD0E022C0E0E8C4540F4430120679CA
:10038E00E8540F4430120679D0E0220D0A002020E6
:10039E00202020200D0A0020202020202020202098
:1003AE0020202020202020002020202020205465E6
:1003BE00737432202020202000202020202020486E
:1003CE004F5420202020202020003A004243445F3A
:1003DE00636F756E7465723A207878200054656D7F
:1003EE00703A78787843202020202020200054690D
:1003FE006D652078783A7878205345542020002077
:10040E0020534F414B20205245464C4F5720200041
:10041E0054656D70002A5245464C4F572A00546958
:10042E006D6500484F4D450054656D7000202A5390
:10043E004F414B2A0054696D6500484F4D4500E50C
:10044E008954F04401F589758CFC758A7CD2A9D249
:10045E008C22758CFC758A7C32E589540F4410F51C
:10046E0089758D6F758BFFD2ABD28E22758D6F75A0
:10047E008BFFB2A6C0E0C0D00558E558954AD450BF
:10048E0005D281C38005C281C38000E558B4C8245B
:10049E000548E548D4F5480560E560D4F560E548C3
:1004AE00755C0085E05DD203B28C755800E5522470
:1004BE0001D4F552D0D0D0E03274696D65007374FA
:1004CE006174650075CDFE75CCB275CFFE75CEB27A
:1004DE0075F98075C980D2ECD2C82275E900C0E0EA
:1004EE00C0D0E559455A455B601D054BE54B708AFA
:1004FE00054C74FF1559B55907155AB55A02155BB7
:10050E00120561F5F58006C2C8D2A4C2A7D0D0D01C
:10051E00E03275840075850075910075920075A4A2
:10052E000075A50075B10075B20022438410438595
:10053E001075A12875970475F5802290FFDEE044B2
:10054E0008F02253A4CB43A53443A40853A5F77552
:10055E00E2D022F5E3E5E130E7FBF5E1E5E322C287
:10056E00A47406120561D2A422C2A47405120561F8
:10057E007455120561D2A420E0EF22C0E075F00A96
:10058E0084443012031CE5F0443012031CD0E022E8
:10059E0000002D00310700700700ADB900F26601B2
:1005AE0035D5017D3301C7610212790249C1028F2F
:1005BE007A02D063031B8703630E03B95F04113AFB
:1005CE000466C404C0120526980574E905D28E0689
:1005DE001D8306634206AAB906F3D6073F02003012
:1005EE00DA003F00003DB20044AD00436F00475EAD
:1005FE00004A2E004B180037480045B90040E9006C
:10060E004B240047870056510057DB00558A00598E
:10061E004E006686004E51005DA5004AF50045BFAE
:10062E0000477700491D004B2C005C87D2A7C2C83B
:10063E00D2A475F003A4F8C2A47403120561900548
:10064E009EE893120561A3E893120561A3E8931245
:10065E0005619005ECE893F55BA3E893F55AA3E8E2
:10066E0093F5597400120561D2C8223099FDC299D2
:10067E00F59922E55EB4001330000FC3E55C9414C7
:10068E005005755E018003755E0322B40109E55CB9
:10069E0012063A755E0222B4020720C803755E0682
:1006AE0022B4030FE55C75F00A84241212063A7523
:1006BE005E0422B4040720C803755E0522B405113A
:1006CE00E55C75F00A84E5F0600312063A755E0289
:1006DE0022B40609741812063A755E0722B407137F
:1006EE0020C80FC3E55D94145005755E08809B7598
:1006FE005E0A22B40809E55D12063A755E0922B457
:10070E00090720C803755E0D22B40A0FE55D75F06A
:10071E000A84241212063A755E0B22B40B0720C807
:10072E0003755E0C22B40C11E55D75F00A84E5F0DC
:10073E00600312063A755E0922B40D097419120689
:10074E003A755E0E22B40E0920C805C200755E0011
:10075E0022755E00C20022C0E0740114120368D03C
:10076E00E0C083C082C0E09003EB12035BD0E0D008
:10077E0082D08322C28EE4F54BF54CF552D28E22F6
:10078E00C0E0740114120366D0E0C083C082C0E0E2
:10079E009003FC12035BD0E0D082D083C203C0E092
:1007AE00740914120366D0E0C000A85212036DD073
:1007BE0000C0E0740614120366D0E0C000A85C12FC
:1007CE00036DD00022E552B4600AE55C2401D4F535
:1007DE005C12078222E55CB4600BC28EE4F54BF529
:1007EE004CF55CD28E223003091207D31207E312A6
:1007FE00078E1207652220A011C0027A0A1202D7B4
:10080E00D00220A00530A0FDB2092009061208FD75
:10081E00020824120945C0E0740514120368D0E0E2
:10082E00C000A84D12036DD000C0E074071412036F
:10083E0068D0E0C000A84E12036DD000C0E0740175
:10084E0014120368D0E0C083C082C0E090041E1270
:10085E00035BD0E0D082D083C0E074091412036829
:10086E00D0E0C083C082C0E090042312035BD0E0CE
:10087E00D082D083C0E0740114120366D0E0C0832E
:10088E00C082C0E090042C12035BD0E0D082D083F3
:10089E00C0E0740814120366D0E0C083C082C0E0CA
:1008AE009003D812035BD0E0D082D083C0E0740CEA
:1008BE0014120366D0E0C083C082C0E090043112EF
:1008CE00035BD0E0D082D083C0E0740914120366BB
:1008DE00D0E0C000A85412036DD000C0E07406141E
:1008EE00120366D0E0C000A85512036DD00022207E
:1008FE00A124C0027A0A1202D7D00220A11830A178
:10090E00FDE554B4590BE5552401D4F555E402091F
:10091E00222401D4F55420A61DC0027A0A1202D751
:10092E00D00220A61130A6FDE554B40004E402095D
:10093E00422499D4F5542220A164C0027A321202C4
:10094E00D7D00220A15830A10FC0027A641202D76C
:10095E00D00230A1030209ACC0E074051412036882
:10096E00D0E0C000A84D12036DD000C0E074071493
:10097E00120368D0E0C000A84E12036DD000C00272
:10098E007A641202D7D002E54E2401D4F54EE54E1C
:10099E007009E54D2401D4F54DE54E02095420A60B
:1009AE0064C0027A321202D7D00220A65830A60FA7
:1009BE00C0027A641202D7D00230A603020A13C014
:1009CE00E0740514120368D0E0C000A84D12036D48
:1009DE00D000C0E0740714120368D0E0C000A84E27
:1009EE0012036DD000C0027A641202D7D002E54E17
:1009FE002499D4F54EE54E7009E54D2499D4F54D64
:100A0E00E54E0209BB2220A011C0027A0A1202D7BB
:100A1E00D00220A00530A0FDB20A200A06120B0D4E
:100A2E00020A34120B55C0E0740514120368D0E0AC
:100A3E00C000A84F12036DD000C0E074071412035B
:100A4E0068D0E0C000A85012036DD000C0E0740161
:100A5E0014120368D0E0C083C082C0E09004361246
:100A6E00035BD0E0D082D083C0E074091412036817
:100A7E00D0E0C083C082C0E090043B12035BD0E0A4
:100A8E00D082D083C0E0740114120366D0E0C0831C
:100A9E00C082C0E090044312035BD0E0D082D083CA
:100AAE00C0E0740814120366D0E0C083C082C0E0B8
:100ABE009003D812035BD0E0D082D083C0E0740CD8
:100ACE0014120366D0E0C083C082C0E090044812C6
:100ADE00035BD0E0D082D083C0E0740914120366A9
:100AEE00D0E0C000A85612036DD000C0E07406140A
:100AFE00120366D0E0C000A85712036DD00022206A
:100B0E00A124C0027A0A1202D7D00220A11830A165
:100B1E00FDE556B4590BE5572401D4F557E4020B05
:100B2E00322401D4F55620A61DC0027A0A1202D72D
:100B3E00D00220A61130A6FDE556B40004E4020B47
:100B4E00522499D4F5562220A164C0027A321202A0
:100B5E00D7D00220A15830A10FC0027A641202D75A
:100B6E00D00230A103020BBCC0E07405141203685E
:100B7E00D0E0C000A84F12036DD000C0E07407147F
:100B8E00120368D0E0C000A85012036DD000C0025E
:100B9E007AC81202D7D002E5502401D4F550E550A0
:100BAE007009E54F2401D4F54FE550020B6420A6E1
:100BBE0064C0027A321202D7D00220A65830A60F95
:100BCE00C0027A641202D7D00230A603020C23C0F0
:100BDE00E0740514120368D0E0C000A84F12036D34
:100BEE00D000C0E0740714120368D0E0C000A85013
:100BFE0012036DD000C0027A641202D7D002E55003
:100C0E002499D4F550E5507009E54F2499D4F54F49
:100C1E00E550020BCB22C0E0740114120368D0E041
:100C2E00C083C082C0E090040D12035BD0E0D0827E
:100C3E00D083C0E0740114120366D0E0C083C0827A
:100C4E00C0E09003A512035BD0E0D082D08322E5F2
:100C5E0046B4001E20A015C0027A0A1202D7D00296
:100C6E0020A00930A0FD754601020C7D1207F4028A
:100C7E000CF2B4014B120C241207D31207E320A777
:100C8E0012C0027A0A1202D7D00220A70630A7FDA0
:100C9E0075460020A112C0027A0A1202D7D0022095
:100CAE00A10630A1FD75460220A612C0027A0A12D4
:100CBE0002D7D00220A60630A6FD754603020CF21E
:100CCE00B402211208041207D31207E320A712C0A0
:100CDE00027A0A1202D7D00220A70630A7FD754667
:100CEE0000020CF22275817F12044D120467120568
:100CFE00201203261205491205391204D21205518B
:100D0E00D2AFC200755E00758400758500759100C6
:100D1E0075920075A40075A50075B10075B20075C9
:100D2E005C00755D00C0E0740114120368D0E0C071
:100D3E0000A85212036DD000D203E4F54BF54C75AA
:100D4E005200754A00754800754500754796754204
:100D5E00057543DC754105756000755400755500C9
:100D6E00755C00754600C208754D01754E50C2097E
:100D7E00755600755700754F01755050120C5D1267
:100D8E000681E560B4050AC28E7400F560C28ED28B
:100D9E0000D28EE545B4000F754A0020B00630B083
:100DAE00FD754501020D8AB40113754A647548003C
:100DBE00E541C395475003754502020D8AB40210F2
:100DCE00754A14E542C395485003754503020D8AD2
:100DDE00B40313754A50754800E543C39547500355
:100DEE00754504020D8AB40410754A14E544C39582
:100DFE00485003754505020D8AB40599754A00C31E
:0A0E0E0095475003754500020D8A58
:00000001FF
