:03000000020808EB
:0100030032CA
:03000B000204608C
:0100130032BA
:03001B0002047A62
:0100230032AA
:03005B000204E9B3
:10005E00C0E0C0D0C000C001C002E4F53CF53DF5E3
:10006E003EF53FF5407A20E537A2E779047834E68D
:10007E0033F608D9FA7905783CE636D4F608D9F97C
:10008E00DAE5D002D001D000D0D0D0E022C0E0C05E
:10009E00D0C000C001C002E4F53CF53DF53EF53F91
:1000AE00F5407A20E537A2E779047834E633F6088E
:1000BE00D9FA7905783CC0D0E6243320E70224D063
:1000CE0020E30224FDD0D033F608D9EADAD6D002E6
:1000DE00D001D000D0D0D0E022C0E0C0D0C000C04F
:1000EE0001C0027A207905C37840E613C0D030E70C
:1000FE000224D030E30224FDF618D0D0D9EC7904D6
:10010E007837E613F618D9FADADBD002D001D00030
:10011E00D0D0D0E022C0E0C0D0E5342538F534E5AB
:10012E00353539F535E536353AF536E537353BF5BE
:10013E0037D0D0D0E022C0E0C0D0C3E5349538F53A
:10014E0034E5359539F535E536953AF536E5379595
:10015E003BF537D0D0D0E022C0E0C0D0C3E5349517
:10016E0038E5359539E536953AE537953B9202D027
:10017E00D0D0E022C0E0C0D0C3E5389534E5399543
:10018E0035E53A9536E53B95379202D0D0D0E02250
:10019E00C0E0C0D0C202C3E53895347014E539957D
:1001AE0035700EE53A95367008E53B95377002D2FC
:1001BE0002D0D0D0E02212019E2002030201822240
:1001CE0012019E20020302016622C0E0C0F0C0D0E0
:1001DE00C000C001C002C003E5348538F0A4F8A900
:1001EE00F0E5358538F0A429F9E435F0FAE53485E3
:1001FE0039F0A429F9E5F03AFAE433FBE53685380F
:10020E00F0A42AFAE5F03BFBE5358539F0A42AFA8D
:10021E00E5F03BFBE534853AF0A42AFAE5F03BFB2A
:10022E00E5378538F0A42BFBE5368539F0A42BFB9A
:10023E00E535853AF0A42BFBE534853BF0A42BFB8A
:10024E008B378A3689358834D003D002D001D0005E
:10025E00D0D0D0F0D0E022C0E0C0D0C000C001C0ED
:10026E0002C003C0047C20E4F8F9FAFBC3E5343382
:10027E00F534E53533F535E53633F536E53733F513
:10028E0037E833F8E933F9EA33FAEB33FBC3E89591
:10029E0038E99539EA953AEB953B4013E89538F8ED
:1002AE00E99539F9EA953AFAEB953BFB433401DCD3
:1002BE00BBD004D003D002D001D000D0D0D0E022E9
:1002CE00C000784AD8FED00022C000C001790A785A
:1002DE00B8D8FED9FADAF6D001D00022D2871202AF
:1002EE00CEC2871202CE22A2E79296A2E69294A2E4
:1002FE00E59293A2E492921202EAA2E39296A2E20D
:10030E009294A2E19293A2E092921202EA22D285F4
:10031E000202F5C2850202F5C287C286C0027A28A1
:10032E001202D7D0027433120321743312032174D4
:10033E00321203217428120321740C12032174014A
:10034E00120321C0027A021202D7D00222E4936075
:10035E000612031CA380F62244404480020321C0EF
:10036E00E0E8C4540F443012031CE8540F4430121A
:10037E00031CD0E022C0E0E8C4540F4430120679CA
:10038E00E8540F4430120679D0E0220D0A002020E6
:10039E00202020200D0A0020202020202020202098
:1003AE0020202020202020002020202020205465E6
:1003BE00737432202020202000202020202020486E
:1003CE004F5420202020202020003A004243445F3A
:1003DE00636F756E7465723A207878200054656D7F
:1003EE00703A78787843202020202020200054690D
:1003FE006D652078783A7878205345542020002077
:10040E0020534F414B20205245464C4F5720200041
:10041E0054656D70002A5245464C4F572A00546958
:10042E006D6500484F4D450054656D7000202A5390
:10043E004F414B2A0054696D6500484F4D4500E50C
:10044E008954F04401F589758CFC758A7CD2A9D249
:10045E008C22758CFC758A7C32E589540F4410F51C
:10046E0089758D6F758BFFD2ABD28E22758D6F75A0
:10047E008BFFB2A6C0E0C0D00558E558954AD450BF
:10048E0005D281C38005C281C38000E558B4C8245B
:10049E000548E548D4F5480560E560D4F560E548C3
:1004AE00755C0085E05DD203B28C755800E5522470
:1004BE0001D4F552D0D0D0E03274696D65007374FA
:1004CE006174650075CDFE75CCB275CFFE75CEB27A
:1004DE0075F98075C980D2ECD2C82275E900C0E0EA
:1004EE00C0D0E559455A455B601D054BE54B708AFA
:1004FE00054C74FF1559B55907155AB55A02155BB7
:10050E00120561F5F58006C2C8D2A4C2A7D0D0D01C
:10051E00E03275840075850075910075920075A4A2
:10052E000075A50075B10075B20022438410438595
:10053E001075A12875970475F5802290FFDEE044B2
:10054E0008F02253A4CB43A53443A40853A5F77552
:10055E00E2D022F5E3E5E130E7FBF5E1E5E322C287
:10056E00A47406120561D2A422C2A47405120561F8
:10057E007455120561D2A420E0EF22C0E075F00A96
:10058E0084443012031CE5F0443012031CD0E022E8
:10059E0000002D00310700700700ADB900F26601B2
:1005AE0035D5017D3301C7610212790249C1028F2F
:1005BE007A02D063031B8703630E03B95F04113AFB
:1005CE000466C404C0120526980574E905D28E0689
:1005DE001D8306634206AAB906F3D6073F02003012
:1005EE00DA003F00003DB20044AD00436F00475EAD
:1005FE00004A2E004B180037480045B90040E9006C
:10060E004B240047870056510057DB00558A00598E
:10061E004E006686004E51005DA5004AF50045BFAE
:10062E0000477700491D004B2C005C87D2A7C2C83B
:10063E00D2A475F003A4F8C2A47403120561900548
:10064E009EE893120561A3E893120561A3E8931245
:10065E0005619005ECE893F55BA3E893F55AA3E8E2
:10066E0093F5597400120561D2C8223099FDC299D2
:10067E00F59922E55EB4001330000FC3E55C9414C7
:10068E005005755E018003755E0322B40109E55CB9
:10069E0012063A755E0222B4020720C803755E0682
:1006AE0022B4030FE55C75F00A84241212063A7523
:1006BE005E0422B4040720C803755E0522B405113A
:1006CE00E55C75F00A84E5F0600312063A755E0289
:1006DE0022B40609741812063A755E0722B407137F
:1006EE0020C80FC3E55D94145005755E08809B7598
:1006FE005E0A22B40809E55D12063A755E0922B457
:10070E00090720C803755E0D22B40A0FE55D75F06A
:10071E000A84241212063A755E0B22B40B0720C807
:10072E0003755E0C22B40C11E55D75F00A84E5F0DC
:10073E00600312063A755E0922B40D097419120689
:10074E003A755E0E22B40E0920C805C200755E0011
:10075E0022755E00C20022C28EE4F54BF54CF552B6
:10076E00D28E22C0E0740114120366D0E0C083C0A2
:10077E0082C0E09003FC12035BD0E0D082D083C233
:10078E0003C0E0740914120366D0E0C000A8521230
:10079E00036DD000C0E0740614120366D0E0C000F2
:1007AE00A85C12036DD00022E552B4600AE55C2409
:1007BE0001D4F55C12076522E55CB4600BC28EE4D1
:1007CE00F54BF54CF55CD28E223003091207B612AA
:1007DE0007C612077122E546B4001E20A615C002F8
:1007EE007A0A1202D7D00220A60930A6FD7546015C
:1007FE000208041207D70208072275817F12044DE2
:10080E001204671205201203261205491205391229
:10081E0004D2120551D2AFC200755E007584007508
:10082E00850075910075920075A40075A50075B1CF
:10083E000075B200755C00755D00C0E074011412A5
:10084E000368D0E0C000A85212036DD000D203E4BA
:10085E00F54BF54C755200754A007548007545000C
:10086E007547967542057543DC75410575600075D3
:10087E005400755500755C00754600C208754D0133
:10088E00754E50C209755600755700754F0175505B
:10089E00501207E4120681E560B4050AC28E740098
:1008AE00F560C28ED200D28EE545B4000F754A00B7
:1008BE0020B00630B0FD75450102089FB4011375D6
:1008CE004A64754800E541C39547500375450202D9
:1008DE00089FB40210754A14E542C395485003753B
:1008EE00450302089FB40313754A50754800E5434B
:1008FE00C39547500375450402089FB40410754A0A
:10090E0014E544C39548500375450502089FB40588
:0F091E0099754A00C39547500375450002089F1D
:00000001FF
