:03000000020C34BB
:0100030032CA
:03000B000204608C
:0100130032BA
:03001B0002048B51
:0100230032AA
:03005B000204EFAD
:10005E00C0E0C0D0C000C001C002E4F53CF53DF5E3
:10006E003EF53FF5407A20E537A2E779047834E68D
:10007E0033F608D9FA7905783CE636D4F608D9F97C
:10008E00DAE5D002D001D000D0D0D0E022C0E0C05E
:10009E00D0C000C001C002E4F53CF53DF53EF53F91
:1000AE00F5407A20E537A2E779047834E633F6088E
:1000BE00D9FA7905783CC0D0E6243320E70224D063
:1000CE0020E30224FDD0D033F608D9EADAD6D002E6
:1000DE00D001D000D0D0D0E022C0E0C0D0C000C04F
:1000EE0001C0027A207905C37840E613C0D030E70C
:1000FE000224D030E30224FDF618D0D0D9EC7904D6
:10010E007837E613F618D9FADADBD002D001D00030
:10011E00D0D0D0E022C0E0C0D0E5342538F534E5AB
:10012E00353539F535E536353AF536E537353BF5BE
:10013E0037D0D0D0E022C0E0C0D0C3E5349538F53A
:10014E0034E5359539F535E536953AF536E5379595
:10015E003BF537D0D0D0E022C0E0C0D0C3E5349517
:10016E0038E5359539E536953AE537953B9202D027
:10017E00D0D0E022C0E0C0D0C3E5389534E5399543
:10018E0035E53A9536E53B95379202D0D0D0E02250
:10019E00C0E0C0D0C202C3E53895347014E539957D
:1001AE0035700EE53A95367008E53B95377002D2FC
:1001BE0002D0D0D0E02212019E2002030201822240
:1001CE0012019E20020302016622C0E0C0F0C0D0E0
:1001DE00C000C001C002C003E5348538F0A4F8A900
:1001EE00F0E5358538F0A429F9E435F0FAE53485E3
:1001FE0039F0A429F9E5F03AFAE433FBE53685380F
:10020E00F0A42AFAE5F03BFBE5358539F0A42AFA8D
:10021E00E5F03BFBE534853AF0A42AFAE5F03BFB2A
:10022E00E5378538F0A42BFBE5368539F0A42BFB9A
:10023E00E535853AF0A42BFBE534853BF0A42BFB8A
:10024E008B378A3689358834D003D002D001D0005E
:10025E00D0D0D0F0D0E022C0E0C0D0C000C001C0ED
:10026E0002C003C0047C20E4F8F9FAFBC3E5343382
:10027E00F534E53533F535E53633F536E53733F513
:10028E0037E833F8E933F9EA33FAEB33FBC3E89591
:10029E0038E99539EA953AEB953B4013E89538F8ED
:1002AE00E99539F9EA953AFAEB953BFB433401DCD3
:1002BE00BBD004D003D002D001D000D0D0D0E022E9
:1002CE00C000784AD8FED00022C000C001790A785A
:1002DE00B8D8FED9FADAF6D001D00022D2871202AF
:1002EE00CEC2871202CE22A2E79296A2E69294A2E4
:1002FE00E59293A2E492921202EAA2E39296A2E20D
:10030E009294A2E19293A2E092921202EA22D285F4
:10031E000202F5C2850202F5C287C286C0027A28A1
:10032E001202D7D0027433120321743312032174D4
:10033E00321203217428120321740C12032174014A
:10034E00120321C0027A021202D7D00222E4936075
:10035E000612031CA380F62244404480020321C0EF
:10036E00E0E8C4540F443012031CE8540F4430121A
:10037E00031CD0E022C0E0E8C4540F443012067FC4
:10038E00E8540F443012067FD0E0220D0A002020E0
:10039E00202020200D0A0020202020202020202098
:1003AE0020202020202020002020202020205465E6
:1003BE00737432202020202000202020202020486E
:1003CE004F5420202020202020003A004243445F3A
:1003DE00636F756E7465723A207878200054656D7F
:1003EE00703A78787843202020202020200054690D
:1003FE006D652078783A7878205345542020002077
:10040E0020534F414B20205245464C4F5720200041
:10041E0054656D70002A5245464C4F572A00546958
:10042E006D6500484F4D450054656D7000202A5390
:10043E004F414B2A0054696D6500484F4D4500E50C
:10044E008954F04401F589758C6F758AFFD2A9D253
:10045E008C22758C6F758AFFC0E0C0D00559E559A6
:10046E00B4C802D20CD0D0D0E032E589540F44107B
:10047E00F589758D6F758BFFD2ABD28E22758D6F10
:10048E00758BFFC0E0C0D00558E558954AD450058D
:10049E00D281C38005C281C38000E558B4C81F0550
:1004AE0048E548D4F5480561E561D4F561E5488530
:1004BE00E05ED203755800E5522401D4F552D0D037
:1004CE00D0E03274696D6500310075CDFE75CCB229
:1004DE0075CFFE75CEB275F98075C980D2ECD2C8D3
:1004EE002275E900C0E0C0D0E55A455B455C601D51
:1004FE00054BE54B7093054C74FF155AB55A07150D
:10050E005BB55B02155C120567F5F58006C2C8D2B5
:10051E00A4C2A7D0D0D0E032758400758500759145
:10052E000075920075A40075A50075B10075B20036
:10053E002243841043851075A12875970475F580A4
:10054E002290FFDEE04408F02253A4CB43A53443AF
:10055E00A40853A5F775E2D022F5E3E5E130E7FBF9
:10056E00F5E1E5E322C2A47406120567D2A422C205
:10057E00A474051205677455120567D2A420E0EF26
:10058E0022C0E075F00A84443012031CE5F04430BA
:10059E0012031CD0E02200002D003107007007006E
:1005AE00ADB900F2660135D5017D3301C761021286
:1005BE00790249C1028F7A02D063031B8703630E4F
:1005CE0003B95F04113A0466C404C01205269805E7
:1005DE0074E905D28E061D8306634206AAB906F398
:1005EE00D6073F020030DA003F00003DB20044ADB6
:1005FE0000436F00475E004A2E004B18003748003C
:10060E0045B90040E9004B2400478700565100577A
:10061E00DB00558A00594E006686004E51005DA5DE
:10062E00004AF50045BF00477700491D004B2C00DE
:10063E005C87D2A7C2C8D2A475F003A4F8C2A47472
:10064E00031205679005A4E893120567A3E89312B9
:10065E000567A3E8931205679005F2E893F55CA38E
:10066E00E893F55BA3E893F55A7400120567D2C8B8
:10067E00223099FDC299F59922E55FB4001330003E
:10068E000FC3E55D94145005755F018003755F031C
:10069E0022B40109E55D120640755F0222B402071D
:1006AE0020C803755F0622B4030FE55D75F00A845A
:1006BE002412120640755F0422B4040720C8037585
:1006CE005F0522B40511E55D75F00A84E5F060035F
:1006DE00120640755F0222B40609741812064075A0
:1006EE005F0722B4071320C80FC3E55E94145005AC
:1006FE00755F08809B755F0A22B40809E55E1206D5
:10070E0040755F0922B4090720C803755F0D22B436
:10071E000A0FE55E75F00A842412120640755F0B0F
:10072E0022B40B0720C803755F0C22B40C11E55ED2
:10073E0075F00A84E5F06003120640755F0922B475
:10074E000D097419120640755F0E22B40E0920C8E9
:10075E0005C200755F0022755F00C20022C0E07402
:10076E000114120368D0E0C083C082C0E09003EB96
:10077E0012035BD0E0D082D08322C28EE4F54BF51B
:10078E004CF552D28E22C0E0740114120366D0E0F2
:10079E00C083C082C0E09003FC12035BD0E0D08225
:1007AE00D083C203C20CC0E0740914120366D0E0F9
:1007BE00C000A85212036DD000C0E07406141203DC
:1007CE0066D0E0C000A85D12036DD00022E552B4E1
:1007DE00600AE55D2401D4F55D12078822E55DB45B
:1007EE00600BC28EE4F54BF54CF55DD28E2220A740
:1007FE0018C0027A321202D7D00220A70C30A7FD01
:10080E00755200755D00120794300C091207DB1249
:10081E0007EB12079412076B2220A011C0027A0A6E
:10082E001202D7D00220A00530A0FDB20920090681
:10083E00120920020847120968C0E0740514120359
:10084E0068D0E0C000A84D12036DD000C0E0740760
:10085E0014120368D0E0C000A84E12036DD000C081
:10086E00E0740114120368D0E0C083C082C0E0902F
:10087E00041E12035BD0E0D082D083C0E074091452
:10088E00120368D0E0C083C082C0E090042312033C
:10089E005BD0E0D082D083C0E0740114120366D026
:1008AE00E0C083C082C0E090042C12035BD0E0D085
:1008BE0082D083C0E0740814120366D0E0C083C0F7
:1008CE0082C0E09003D812035BD0E0D082D083C008
:1008DE00E0740C14120366D0E0C083C082C0E090B6
:1008EE00043112035BD0E0D082D083C0E0740914CF
:1008FE00120366D0E0C000A85412036DD000C0E011
:10090E00740614120366D0E0C000A85512036DD011
:10091E00002220A124C0027A0A1202D7D00220A1FE
:10092E001830A1FDE554B4590BE5552401D4F55505
:10093E00E40209452401D4F55420A61DC0027A0A0A
:10094E001202D7D00220A61130A6FDE554B4000441
:10095E00E40209652499D4F5542220A121C0027A1B
:10096E000A1202D7D00220A11530A1FDE54E2401B6
:10097E00D4F54EE54E7007E54D2401D4F54D20A675
:10098E0021C0027A0A1202D7D00220A61530A6FD87
:10099E00E54E2499D4F54EE54E7007E54D2499D4D5
:1009AE00F54D2220A011C0027A0A1202D7D00220E1
:1009BE00A00530A0FDB20A200A06120AAA0209D129
:1009CE00120AF2C0E0740514120368D0E0C000A849
:1009DE004F12036DD000C0E0740714120368D0E00C
:1009EE00C000A85012036DD000C0E07401141203B1
:1009FE0068D0E0C083C082C0E090043612035BD0A2
:100A0E00E0D082D083C0E0740914120368D0E0C035
:100A1E0083C082C0E090043B12035BD0E0D082D052
:100A2E0083C0E0740114120366D0E0C083C082C09C
:100A3E00E090044312035BD0E0D082D083C0E07418
:100A4E000814120366D0E0C083C082C0E09003D8C1
:100A5E0012035BD0E0D082D083C0E0740C1412037A
:100A6E0066D0E0C083C082C0E090044812035BD021
:100A7E00E0D082D083C0E0740914120366D0E0C0C7
:100A8E0000A85612036DD000C0E07406141203665F
:100A9E00D0E0C000A85712036DD0002220A124C0C0
:100AAE00027A0A1202D7D00220A11830A1FDE55613
:100ABE00B4590BE5572401D4F557E4020ACF2401AB
:100ACE00D4F55620A61DC0027A0A1202D7D00220F3
:100ADE00A61130A6FDE556B40004E4020AEF2499EF
:100AEE00D4F5562220A121C0027A0A1202D7D002D2
:100AFE0020A11530A1FDE5502401D4F550E550702C
:100B0E0007E54F2401D4F54F20A621C0027A0A1220
:100B1E0002D7D00220A61530A6FDE5502499D4F5B3
:100B2E0050E5507007E54F2499D4F54F22C0E0747C
:100B3E000114120368D0E0C083C082C0E090040D9F
:100B4E0012035BD0E0D082D083C0E0740114120394
:100B5E0066D0E0C083C082C0E09003A512035BD0D4
:100B6E00E0D082D08322E546B4001E20A015C0023C
:100B7E007A0A1202D7D00220A00930A0FD754601D4
:100B8E00020B941207FC020C33B4014B120B3B12F6
:100B9E0007DB1207EB20A712C0027A0A1202D7D087
:100BAE000220A70630A7FD75460020A112C0027ACA
:100BBE000A1202D7D00220A10630A1FD75460220EE
:100BCE00A612C0027A0A1202D7D00220A60630A6BA
:100BDE00FD754603020C33B402211208271207DBFF
:100BEE001207EB20A712C0027A0A1202D7D00220F7
:100BFE00A70630A7FD754600020C33B40303020CA2
:100C0E0012020B761209B11207DB1207EB20A712A4
:100C1E00C0027A0A1202D7D00220A70630A7FD75AD
:100C2E004600020C332275817F12044D1204781295
:100C3E00052612032612054F12053F1204D812057F
:100C4E0057D2AFC200755F0075840075850075912F
:100C5E000075920075A40075A50075B10075B200FF
:100C6E00755E00C0E0740114120368D0E0C000A8E5
:100C7E005212036DD000D203D20CE4F54BF54C7535
:100C8E005200754A007548007545007547967542C5
:100C9E00057543DC75410575610075540075550089
:100CAE00755D00754600C208754D01754E50C2093E
:100CBE00755600755700754F01755050C20B120BCB
:100CCE007412068720A614C0027A321202D7D002FE
:100CDE0020A60830A6FDC28E020CCCE545B400134A
:100CEE00754A00C28E20B00830B0FDD28E75450117
:100CFE00020CCCB40113754A64754800E541C395E6
:100D0E00475003754502020CCCB40210754A14E527
:100D1E0042C395485003754503020CCCB4031375BA
:100D2E004A50754800E543C3954750037545040284
:100D3E000CCCB40410754A14E544C39548500375A1
:100D4E004505020CCCB40595754A00C39547500372
:060D5E00754500020CCCFB
:00000001FF
