:03000000020CC02F
:0100030032CA
:03000B000204806C
:0100130032BA
:03001B000204AB31
:0100230032AA
:03005B000205019A
:10005E00C0E0C0D0C000C001C002E4F561F562F599
:10006E0063F564F5657A20E554A2E779047851E6E4
:10007E0033F608D9FA79057861E636D4F608D9F957
:10008E00DAE5D002D001D000D0D0D0E022C0E0C05E
:10009E00D0C000C001C002E4F561F562F563F564FD
:1000AE00F5657A20E554A2E779047851E633F6082F
:1000BE00D9FA79057861C0D0E6243320E70224D03E
:1000CE0020E30224FDD0D033F608D9EADAD6D002E6
:1000DE00D001D000D0D0D0E022C0E0C0D0C000C04F
:1000EE0001C0027A207905C37865E613C0D030E7E7
:1000FE000224D030E30224FDF618D0D0D9EC7904D6
:10010E007854E613F618D9FADADBD002D001D00013
:10011E00D0D0D0E022C0E0C0D0E5512555F551E554
:10012E00523556F552E5533557F553E5543558F5D6
:10013E0054D0D0D0E022C0E0C0D0C3E5519555F5E3
:10014E0051E5529556F552E5539557F553E55495AD
:10015E0058F554D0D0D0E022C0E0C0D0C3E55195C0
:10016E0055E5529556E5539557E55495589202D05C
:10017E00D0D0E022C0E0C0D0C3E5559551E55695EC
:10018E0052E5579553E55895549202D0D0D0E022BF
:10019E00C0E0C0D0C202C3E55595517014E5569526
:1001AE0052700EE55795537008E55895547002D26B
:1001BE0002D0D0D0E02212019E2002030201822240
:1001CE0012019E20020302016622C0E0C0F0C0D0E0
:1001DE00C000C001C002C003E5518555F0A4F8A9C6
:1001EE00F0E5528555F0A429F9E435F0FAE551858C
:1001FE0056F0A429F9E5F03AFAE433FBE5538555B8
:10020E00F0A42AFAE5F03BFBE5528556F0A42AFA53
:10021E00E5F03BFBE5518557F0A42AFAE5F03BFBF0
:10022E00E5548555F0A42BFBE5538556F0A42BFB26
:10023E00E5528557F0A42BFBE5518558F0A42BFB16
:10024E008B548A5389528851D003D002D001D000EA
:10025E00D0D0D0F0D0E022C0E0C0D0C000C001C0ED
:10026E0002C003C0047C20E4F8F9FAFBC3E5513365
:10027E00F551E55233F552E55333F553E55433F565
:10028E0054E833F8E933F9EA33FAEB33FBC3E89574
:10029E0055E99556EA9557EB95584013E89555F85C
:1002AE00E99556F9EA9557FAEB9558FB435101DC5F
:1002BE00BBD004D003D002D001D000D0D0D0E022E9
:1002CE00C000784AD8FED00022C000C001790A785A
:1002DE00B8D8FED9FADAF6D001D00022D2871202AF
:1002EE00CEC2871202CE22A2E79296A2E69294A2E4
:1002FE00E59293A2E492921202EAA2E39296A2E20D
:10030E009294A2E19293A2E092921202EA22D285F4
:10031E000202F5C2850202F5C287C286C0027A28A1
:10032E001202D7D0027433120321743312032174D4
:10033E00321203217428120321740C12032174014A
:10034E00120321C0027A021202D7D00222E4936075
:10035E000612031CA380F62244404480020321C0EF
:10036E00E0E8C4540F443012031CE8540F4430121A
:10037E00031CD0E022C0E0E8C4540F4430120399AD
:10038E00E8540F4430120399D0E02210990280FBFA
:10039E00F599220D0A002020202020200D0A002091
:1003AE00202020202020202020202020202020005F
:1003BE0020202020202054657374322020202020FD
:1003CE0000202020202020484F54202020202020B4
:1003DE0020003A0074696D650031004243445F634A
:1003EE006F756E7465723A207878200054656D7062
:1003FE003A78787843202020202020200054696D00
:10040E00652078783A7878205345542020002020B3
:10041E00534F414B20205245464C4F5720200054FD
:10042E00656D70002A5245464C4F572A0054696D2F
:10043E006500484F4D450054656D7000202A534F9E
:10044E00414B2A0054696D6500484F4D45003031CF
:10045E00323334353637383941424344454600E568
:10046E008954F04401F589758C6F758AFFD2A9D233
:10047E008C22758C6F758AFFC0E0C0D00548E548A8
:10048E00B43202D20CD0D0D0E032E589540F4410F1
:10049E00F589758D6F758BFFD2ABD28E22758D6FF0
:1004AE00758BFFC0E0C0D00547E5479539D45005A0
:1004BE00D281C38005C281C38000E547B4C8180548
:1004CE0037E537D4F537E53785E04DD2037547006C
:1004DE00E5412401D4F541D0D0D0E03275CDFE7582
:1004EE00CCB275CFFE75CEB275F98075C980D2ECDF
:1004FE00D2C82275E900C0E0C0D0E549454A454B57
:10050E00601574FF1549B54907154AB54A02154BD2
:10051E00120571F5F58006C2C8D2A4C2A7D0D0D0FC
:10052E00E03275840075850075910075920075A492
:10053E000075A50075B10075B20022438410438585
:10054E001075A12875970475F5802290FFDEE044A2
:10055E0008F02253A4CB43A53443A40853A5F77542
:10056E00E2D022F5E3E5E130E7FBF5E1E5E322C277
:10057E00A47406120571D2A422C2A47405120571C8
:10058E007455120571D2A420E0EF22C0E075F00A76
:10059E0084443012031CE5F0443012031CD0E022D8
:1005AE0000002D00310700700700ADB900F26601A2
:1005BE0035D5017D3301C7610212790249C1028F1F
:1005CE007A02D063031B8703630E03B95F04113AEB
:1005DE000466C404C0120526980574E905D28E0679
:1005EE001D8306634206AAB906F3D6073F02003002
:1005FE00DA003F00003DB20044AD00436F00475E9D
:10060E00004A2E004B180037480045B90040E9005B
:10061E004B240047870056510057DB00558A00597E
:10062E004E006686004E51005DA5004AF50045BF9E
:10063E0000477700491D004B2C005C87D2A7C2C82B
:10064E00D2A475F003A4F8C2A47403120571900528
:10065E00AEE893120571A3E893120571A3E8931205
:10066E0005719005FCE893F54BA3E893F54AA3E8D2
:10067E0093F5497400120571D2C82275BD0075BF7D
:10068E000075BE3075BD0375985275910075920058
:10069E0022C0E079007A08E833F892B1D282A283C0
:1006AE00E933F9C282DAF0D0E02210980280FBE53D
:1006BE0099227AB279FA78A6D8FED9FADAF6229089
:1006CE00045CE562C4540F93120399E562540F93D0
:1006DE00120399742E120399E561C4540F931203F9
:1006EE0099E561540F93120399740D120399740ACC
:1006FE0012039922E4936006120399A380F6220D49
:10070E000A00C000A862120383D000C000A86112C4
:10071E000383D00022E54EB4001330000FC3E54C26
:10072E0094145005754E018003754E0322B40109D1
:10073E00E54C12064A754E0222B4020720C8037514
:10074E004E0622B4030FE54C75F00A8424121206ED
:10075E004A754E0422B4040720C803754E0522B410
:10076E000511E54C75F00A84E5F0600312064A7532
:10077E004E0222B40609741812064A754E0722B4A8
:10078E00071320C80FC3E54D94145005754E08800D
:10079E009B754E0A22B40809E54D12064A754E099C
:1007AE0022B4090720C803754E0D22B40A0FE54D79
:1007BE0075F00A84241212064A754E0B22B40B07EA
:1007CE0020C803754E0C22B40C11E54D75F00A8449
:1007DE00E5F0600312064A754E0922B40D0974192C
:1007EE0012064A754E0E22B40E0920C805C20075B7
:1007FE004E0022754E00C200227AB279FA78A6D83F
:10080E00FED9FADAF622C0E0740114120368D0E0C1
:10081E00C083C082C0E09003FA12035BD0E0D082A6
:10082E00D08322C28EE4754700F541D28E22C0E0FD
:10083E00740114120366D0E0C083C082C0E090043D
:10084E000B12035BD0E0D082D083C203C20CC0E097
:10085E00740914120366D0E0C000A84112036DD0D3
:10086E0000C0E0740614120366D0E0C000A84C125B
:10087E00036DD00022E541B4600AE54C2401D4F5A5
:10088E004C12083122E54CB4600AC28EE475470062
:10089E00F54CD28E223003091208831208931208E7
:1008AE003C1208142220A211C0027A0A1202D7D0DA
:1008BE000220A20530A2FDB2092009061209AC02DF
:1008CE0008D31209F4C0E0740514120368D0E0C016
:1008DE0000A83C12036DD000C0E074071412036828
:1008EE00D0E0C000A83D12036DD000C0E07401142A
:1008FE00120368D0E0C083C082C0E090042D1203C2
:10090E005BD0E0D082D083C0E0740914120368D0AB
:10091E00E0C083C082C0E090043212035BD0E0D00E
:10092E0082D083C0E0740114120366D0E0C083C08D
:10093E0082C0E090043B12035BD0E0D082D083C033
:10094E00E0740814120366D0E0C083C082C0E09049
:10095E0003E012035BD0E0D082D083C0E0740C14AD
:10096E00120366D0E0C083C082C0E0900440120340
:10097E005BD0E0D082D083C0E0740914120366D03D
:10098E00E0C000A84312036DD000C0E0740614123C
:10099E000366D0E0C000A84412036DD0002220A14F
:1009AE0024C0027A0A1202D7D00220A11830A1FD6B
:1009BE00E543B4590BE5442401D4F544E40209D1CE
:1009CE002401D4F54320A01DC0027A0A1202D7D00A
:1009DE000220A01130A0FDE543B40004E40209F1A9
:1009EE002499D4F5432220A121C0027A0A1202D7FB
:1009FE00D00220A11530A1FDE53D2401D4F53DE541
:100A0E003D7007E53C2401D4F53C20A021C0027ABC
:100A1E000A1202D7D00220A01530A0FDE53D249980
:100A2E00D4F53DE53D7007E53C2499D4F53C2220F4
:100A3E00A211C0027A0A1202D7D00220A20530A259
:100A4E00FDB20A200A06120B36020A5D120B7EC098
:100A5E00E0740514120368D0E0C000A83E12036DC6
:100A6E00D000C0E0740714120368D0E0C000A83FA5
:100A7E0012036DD000C0E0740114120368D0E0C000
:100A8E0083C082C0E090044512035BD0E0D082D0D8
:100A9E0083C0E0740914120368D0E0C083C082C022
:100AAE00E090044A12035BD0E0D082D083C0E074A1
:100ABE000114120366D0E0C083C082C0E0900452DD
:100ACE0012035BD0E0D082D083C0E074081412030E
:100ADE0066D0E0C083C082C0E09003E012035BD01A
:100AEE00E0D082D083C0E0740C14120366D0E0C054
:100AFE0083C082C0E090045712035BD0E0D082D056
:100B0E0083C0E0740914120366D0E0C000A8451239
:100B1E00036DD000C0E0740614120366D0E0C0006E
:100B2E00A84612036DD0002220A124C0027A0A1218
:100B3E0002D7D00220A11830A1FDE545B4590BE52E
:100B4E00462401D4F546E4020B5B2401D4F545207E
:100B5E00A01DC0027A0A1202D7D00220A01130A026
:100B6E00FDE545B40004E4020B7B2499D4F545223F
:100B7E0020A121C0027A0A1202D7D00220A115307C
:100B8E00A1FDE53F2401D4F53FE53F7007E53E2486
:100B9E0001D4F53E20A021C0027A0A1202D7D0025B
:100BAE0020A01530A0FDE53F2499D4F53FE53F7018
:100BBE0007E53E2499D4F53E22C0E07401141203D9
:100BCE0068D0E0C083C082C0E090041C12035BD0EA
:100BDE00E0D082D083C0E0740114120366D0E0C06E
:100BEE0083C082C0E09003AD12035BD0E0D082D010
:100BFE008322E535B4001E20A215C0027A0A120225
:100C0E00D7D00220A20930A2FD753501020C2012A8
:100C1E0008A3020CBFB4014B120BC71208831208B3
:100C2E0093209712C0027A0A1202D7D0022097069A
:100C3E003097FD75350020A112C0027A0A1202D734
:100C4E00D00220A10630A1FD75350220A012C002EF
:100C5E007A0A1202D7D00220A00630A0FD75350305
:100C6E00020CBFB402211208B3120883120893209B
:100C7E009712C0027A0A1202D7D002209706309736
:100C8E00FD753500020CBFB40303020C9E020C026C
:100C9E00120A3D120883120893209712C0027A0A94
:100CAE001202D7D0022097063097FD753500020C40
:100CBE00BF2275817F12046D1204981206891205E7
:100CCE00301203261205591205491204EA12056163
:100CDE00D2AFC200754E0075840075850075910007
:100CEE0075920075A40075A50075B10075B20075FA
:100CFE004D00D203D20C7541007539007537007561
:100D0E0034007536967531057532DC7530057550C3
:100D1E0000754300754400754C00753500C20875AA
:100D2E003C01753D50C209754500754600753E0182
:100D3E00753F50C20B120C00120723E534B400139A
:100D4E00753900C28E20B00830B0FDD28E753401D8
:100D5E00020D43B40113753964753700E530C39540
:100D6E00365003753402020D43B40210753914E582
:100D7E0031C395375003753403020D43B403137515
:100D8E003950753700E532C3953650037534040279
:100D9E000D43B40410753914E533C39537500375FC
:100DAE003405020D43B40595753900C395365003CD
:060DBE00753400020D4334
:00000001FF
