:03000000020C43AC
:0100030032CA
:03000B0002046785
:0100130032BA
:03001B000204924A
:0100230032AA
:03005B000204E8B4
:10005E00C0E0C0D0C000C001C002E4F53CF53DF5E3
:10006E003EF53FF5407A20E537A2E779047834E68D
:10007E0033F608D9FA7905783CE636D4F608D9F97C
:10008E00DAE5D002D001D000D0D0D0E022C0E0C05E
:10009E00D0C000C001C002E4F53CF53DF53EF53F91
:1000AE00F5407A20E537A2E779047834E633F6088E
:1000BE00D9FA7905783CC0D0E6243320E70224D063
:1000CE0020E30224FDD0D033F608D9EADAD6D002E6
:1000DE00D001D000D0D0D0E022C0E0C0D0C000C04F
:1000EE0001C0027A207905C37840E613C0D030E70C
:1000FE000224D030E30224FDF618D0D0D9EC7904D6
:10010E007837E613F618D9FADADBD002D001D00030
:10011E00D0D0D0E022C0E0C0D0E5342538F534E5AB
:10012E00353539F535E536353AF536E537353BF5BE
:10013E0037D0D0D0E022C0E0C0D0C3E5349538F53A
:10014E0034E5359539F535E536953AF536E5379595
:10015E003BF537D0D0D0E022C0E0C0D0C3E5349517
:10016E0038E5359539E536953AE537953B9202D027
:10017E00D0D0E022C0E0C0D0C3E5389534E5399543
:10018E0035E53A9536E53B95379202D0D0D0E02250
:10019E00C0E0C0D0C202C3E53895347014E539957D
:1001AE0035700EE53A95367008E53B95377002D2FC
:1001BE0002D0D0D0E02212019E2002030201822240
:1001CE0012019E20020302016622C0E0C0F0C0D0E0
:1001DE00C000C001C002C003E5348538F0A4F8A900
:1001EE00F0E5358538F0A429F9E435F0FAE53485E3
:1001FE0039F0A429F9E5F03AFAE433FBE53685380F
:10020E00F0A42AFAE5F03BFBE5358539F0A42AFA8D
:10021E00E5F03BFBE534853AF0A42AFAE5F03BFB2A
:10022E00E5378538F0A42BFBE5368539F0A42BFB9A
:10023E00E535853AF0A42BFBE534853BF0A42BFB8A
:10024E008B378A3689358834D003D002D001D0005E
:10025E00D0D0D0F0D0E022C0E0C0D0C000C001C0ED
:10026E0002C003C0047C20E4F8F9FAFBC3E5343382
:10027E00F534E53533F535E53633F536E53733F513
:10028E0037E833F8E933F9EA33FAEB33FBC3E89591
:10029E0038E99539EA953AEB953B4013E89538F8ED
:1002AE00E99539F9EA953AFAEB953BFB433401DCD3
:1002BE00BBD004D003D002D001D000D0D0D0E022E9
:1002CE00C000784AD8FED00022C000C001790A785A
:1002DE00B8D8FED9FADAF6D001D00022D2871202AF
:1002EE00CEC2871202CE22A2E79296A2E69294A2E4
:1002FE00E59293A2E492921202EAA2E39296A2E20D
:10030E009294A2E19293A2E092921202EA22D285F4
:10031E000202F5C2850202F5C287C286C0027A28A1
:10032E001202D7D0027433120321743312032174D4
:10033E00321203217428120321740C12032174014A
:10034E00120321C0027A021202D7D00222E4936075
:10035E000612031CA380F62244404480020321C0EF
:10036E00E0E8C4540F443012031CE8540F4430121A
:10037E00031CD0E022C0E0E8C4540F4430120670D3
:10038E00E8540F4430120670D0E0220D0A002020EF
:10039E00202020200D0A0020202020202020202098
:1003AE0020202020202020002020202020205465E6
:1003BE00737432202020202000202020202020486E
:1003CE004F5420202020202020003A0074696D65B3
:1003DE000031004243445F636F756E7465723A205C
:1003EE007878200054656D703A7878784320202014
:1003FE00202020200054696D652078783A78782086
:10040E005345542020002020534F414B202052456D
:10041E00464C4F5720200054656D70002A524546B9
:10042E004C4F572A0054696D6500484F4D45005496
:10043E00656D7000202A534F414B2A0054696D653B
:10044E0000484F4D4500E58954F04401F589758CFF
:10045E006F758AFFD2A9D28C22758C6F758AFFC0F8
:10046E00E0C0D00559E559B43202D20CD0D0D0E05C
:10047E0032E589540F4410F589758D6F758BFFD257
:10048E00ABD28E22758D6F758BFFC0E0C0D0055834
:10049E00E558954AD45005D281C38005C281C380E8
:1004AE0000E558B4C8180548E548D4F548E5488530
:1004BE00E05ED203755800E5522401D4F552D0D037
:1004CE00D0E03275CDFE75CCB275CFFE75CEB2755D
:1004DE00F98075C980D2ECD2C82275E900C0E0C09F
:1004EE00D0E55A455B455C601574FF155AB55A0741
:1004FE00155BB55B02155C120558F5F58006C2C892
:10050E00D2A4C2A7D0D0D0E0327584007585007514
:10051E00910075920075A40075A50075B10075B2B5
:10052E00002243841043851075A12875970475F534
:10053E00802290FFDEE04408F02253A4CB43A53482
:10054E0043A40853A5F775E2D022F5E3E5E130E7C1
:10055E00FBF5E1E5E322C2A47406120558D2A422EB
:10056E00C2A474051205587455120558D2A420E081
:10057E00EF22C0E075F00A84443012031CE5F0440B
:10058E003012031CD0E02200002D0031070070074E
:10059E0000ADB900F2660135D5017D3301C76102A8
:1005AE0012790249C1028F7A02D063031B8703635B
:1005BE000E03B95F04113A0466C404C012052698EE
:1005CE000574E905D28E061D8306634206AAB90696
:1005DE00F3D6073F020030DA003F00003DB2004480
:1005EE00AD00436F00475E004A2E004B180037489F
:1005FE000045B90040E9004B2400478700565100E2
:10060E0057DB00558A00594E006686004E51005D3C
:10061E00A5004AF50045BF00477700491D004B2C49
:10062E00005C87D2A7C2C8D2A475F003A4F8C2A4F6
:10063E007403120558900595E893120558A3E89394
:10064E00120558A3E8931205589005E3E893F55C5C
:10065E00A3E893F55BA3E893F55A7400120558D2FC
:10066E00C8223099FDC299F59922E55FB400133086
:10067E00000FC3E55D94145005755F018003755F2F
:10068E000322B40109E55D120631755F0222B40240
:10069E000720C803755F0622B4030FE55D75F00AE7
:1006AE00842412120631755F0422B4040720C80395
:1006BE00755F0522B40511E55D75F00A84E5F060FD
:1006CE0003120631755F0222B40609741812063140
:1006DE00755F0722B4071320C80FC3E55E9414504C
:1006EE0005755F08809B755F0A22B40809E55E12E6
:1006FE000631755F0922B4090720C803755F0D2204
:10070E00B40A0FE55E75F00A842412120631755F85
:10071E000B22B40B0720C803755F0C22B40C11E535
:10072E005E75F00A84E5F06003120631755F0922EA
:10073E00B40D097419120631755F0E22B40E09201C
:10074E00C805C200755F0022755F00C200227AB232
:10075E0079FA78A6D8FED9FADAF622C0E074011436
:10076E00120368D0E0C083C082C0E09003F212038F
:10077E005BD0E0D082D08322C28EE4755800F55251
:10078E00D28E22C0E0740114120366D0E0C083C082
:10079E0082C0E090040312035BD0E0D082D083C20B
:1007AE0003C20CC0E0740914120366D0E0C000A8A6
:1007BE005212036DD000C0E0740614120366D0E02E
:1007CE00C000A85D12036DD00022E552B4600AE5A8
:1007DE005D2401D4F55D12078622E55DB4600AC280
:1007EE008EE4755800F55DD28E2220A72BC0027ABA
:1007FE00321202D7D00220A71F30A7FD7552007506
:10080E005D00120791C0E0740E14120368D0E0C0B0
:10081E0000A80C12036DD0003003091207D812077E
:10082E00E81207911207692220A011C0027A0A125B
:10083E0002D7D00220A00530A0FDB2092009061271
:10084E00092F020856120977C0E0740514120368C6
:10085E00D0E0C000A84D12036DD000C0E0740714A4
:10086E00120368D0E0C000A84E12036DD000C0E0A5
:10087E00740114120368D0E0C083C082C0E09004FB
:10088E002512035BD0E0D082D083C0E0740914122D
:10089E000368D0E0C083C082C0E090042A12035BDC
:1008AE00D0E0D082D083C0E0740114120366D0E091
:1008BE00C083C082C0E090043312035BD0E0D082CC
:1008CE00D083C0E0740814120366D0E0C083C082E7
:1008DE00C0E09003D812035BD0E0D082D083C0E09A
:1008EE00740C14120366D0E0C083C082C0E0900482
:1008FE003812035BD0E0D082D083C0E074091412AA
:10090E000366D0E0C000A85412036DD000C0E0749E
:10091E000614120366D0E0C000A85512036DD00075
:10092E002220A124C0027A0A1202D7D00220A118D6
:10093E0030A1FDE554B4590BE5552401D4F555E429
:10094E000209542401D4F55420A61DC0027A0A12BD
:10095E0002D7D00220A61130A6FDE554B40004E45F
:10096E000209742499D4F5542220A121C0027A0AD6
:10097E001202D7D00220A11530A1FDE54E2401D4DC
:10098E00F54EE54E7007E54D2401D4F54D20A62118
:10099E00C0027A0A1202D7D00220A61530A6FDE5B3
:1009AE004E2499D4F54EE54E7007E54D2499D4F5B5
:1009BE004D2220A011C0027A0A1202D7D00220A026
:1009CE000530A0FDB20A200A06120AB90209E01289
:1009DE000B01C0E0740514120368D0E0C000A84FEC
:1009EE0012036DD000C0E0740714120368D0E0C08B
:1009FE0000A85012036DD000C0E0740114120368F9
:100A0E00D0E0C083C082C0E090043D12035BD0E012
:100A1E00D082D083C0E0740914120368D0E0C08382
:100A2E00C082C0E090044212035BD0E0D082D0833B
:100A3E00C0E0740114120366D0E0C083C082C0E02F
:100A4E0090044A12035BD0E0D082D083C0E07408D9
:100A5E0014120366D0E0C083C082C0E09003D812A7
:100A6E00035BD0E0D082D083C0E0740C1412036616
:100A7E00D0E0C083C082C0E090044F12035BD0E090
:100A8E00D082D083C0E0740914120366D0E0C00097
:100A9E00A85612036DD000C0E0740614120366D07F
:100AAE00E0C000A85712036DD0002220A124C0027E
:100ABE007A0A1202D7D00220A11830A1FDE556B451
:100ACE00590BE5572401D4F557E4020ADE2401D46C
:100ADE00F55620A61DC0027A0A1202D7D00220A611
:100AEE001130A6FDE556B40004E4020AFE2499D4A2
:100AFE00F5562220A121C0027A0A1202D7D0022076
:100B0E00A11530A1FDE5502401D4F550E550700734
:100B1E00E54F2401D4F54F20A621C0027A0A120215
:100B2E00D7D00220A61530A6FDE5502499D4F55055
:100B3E00E5507007E54F2499D4F54F22C0E07401BB
:100B4E0014120368D0E0C083C082C0E09004141277
:100B5E00035BD0E0D082D083C0E074011412036630
:100B6E00D0E0C083C082C0E09003A512035BD0E04A
:100B7E00D082D08322E546B4001E20A015C0027A92
:100B8E000A1202D7D00220A00930A0FD754601023C
:100B9E000BA31207F8020C42B4014B120B4A1207B8
:100BAE00D81207E820A712C0027A0A1202D7D00282
:100BBE0020A70630A7FD75460020A112C0027A0AB2
:100BCE001202D7D00220A10630A1FD75460220A642
:100BDE0012C0027A0A1202D7D00220A60630A6FD53
:100BEE00754603020C42B402211208361207D812BF
:100BFE0007E820A712C0027A0A1202D7D00220A755
:100C0E000630A7FD754600020C42B40303020C2108
:100C1E00020B851209C01207D81207E820A712C0CE
:100C2E00027A0A1202D7D00220A70630A7FD754617
:100C3E0000020C422275817F12045412047F1205A9
:100C4E00171203261205401205301204D112054860
:100C5E00D2AFC200755F0075840075850075910076
:100C6E0075920075A40075A50075B10075B200757A
:100C7E005E00D203D20C755200754A00754800759D
:100C8E0045007547967542057543DC7541057561DE
:100C9E0000755400755500755D00754600C20875E7
:100CAE004D01754E50C209755600755700754F01AE
:100CBE00755050C20B120B8312067820A614C00278
:100CCE007A321202D7D00220A60830A6FDC28E02BA
:100CDE000CC3E545B40013754A00C28E20B008302F
:100CEE00B0FDD28E754501020CC3B40113754A6472
:100CFE00754800E541C395475003754502020CC384
:100D0E00B40210754A14E542C39548500375450365
:100D1E00020CC3B40313754A50754800E543C395DE
:100D2E00475003754504020CC3B40410754A14E50C
:100D3E0044C395485003754505020CC3B40595751B
:0D0D4E004A00C395475003754500020CC3D1
:00000001FF
