:0300000002037484
:10000300C0E0C0D0C000C001C002E4F540F541F536
:1000130042F543F5447A20E533A2E779047830E6E4
:1000230033F608D9FA79057840E636D4F608D9F9D3
:10003300DAE5D002D001D000D0D0D0E022C0E0C0B9
:10004300D0C000C001C002E4F540F541F542F543DC
:10005300F5447A20E533A2E779047830E633F608ED
:10006300D9FA79057840C0D0E6243320E70224D0BA
:1000730020E30224FDD0D033F608D9EADAD6D00241
:10008300D001D000D0D0D0E022C0E0C0D0C000C0AA
:1000930001C0027A207905C37844E613C0D030E763
:1000A3000224D030E30224FDF618D0D0D9EC790431
:1000B3007833E613F618D9FADADBD002D001D00090
:1000C300D0D0D0E022C0E0C0D0E5302534F530E513
:1000D300313535F531E5323536F532E5333537F53A
:1000E30033D0D0D0E022C0E0C0D0C3E5309534F5A2
:1000F30030E5319535F531E5329536F532E5339511
:1001030037F533D0D0D0E022C0E0C0D0C3E530957E
:1001130034E5319535E5329536E53395379200D0A0
:10012300D0D0E022C0E0C0D0C3E5349530E53595AA
:1001330031E5369532E53795339200D0D0D0E022C1
:10014300C0E0C0D0C200C3E53495307014E53595E6
:1001530031700EE53695327008E53795337002D26B
:1001630000D0D0D0E0221201432000030201272255
:1001730012014320000302010B22C0E0C0F0C0D0F3
:10018300C000C001C002C003E5308534F0A4F8A963
:10019300F0E5318534F0A429F9E435F0FAE530854A
:1001A30035F0A429F9E5F03AFAE433FBE532853476
:1001B300F0A42AFAE5F03BFBE5318535F0A42AFAF1
:1001C300E5F03BFBE5308536F0A42AFAE5F03BFB8E
:1001D300E5338534F0A42BFBE5328535F0A42BFB06
:1001E300E5318536F0A42BFBE5308537F0A42BFBF6
:1001F3008B338A3289318830D003D002D001D000CA
:10020300D0D0D0F0D0E022C0E0C0D0C000C001C048
:1002130002C003C0047C20E4F8F9FAFBC3E53033E1
:10022300F530E53133F531E53233F532E53333F586
:1002330033E833F8E933F9EA33FAEB33FBC3E895F0
:1002430034E99535EA9536EB95374013E89534F85C
:10025300E99535F9EA9536FAEB9537FB433001DC3E
:10026300BBD004D003D002D001D000D0D0D0E02244
:1002730075BD0075BF0075BE3075BD0375985275A9
:10028300910075920022D283C28222C0E079007A63
:1002930008E833F892B1D282A283E933F9C282DA51
:1002A300F0D0E022C0E0E8C4540F44301202BDE8AD
:1002B300540F44301202BDD0E02210990280FBF5A6
:1002C300992210980280FBE599227A1479FA78A68C
:1002D300D8FED9FADAF622303132333435363738AC
:1002E300394142434445469002DAE541C4540F93F1
:1002F3001202BDE541540F931202BD742E1202BDCA
:10030300E540C4540F931202BDE540540F9312020B
:10031300BD740D1202BD740A1202BD22E49360067D
:100323001202BDA380F6220D0A00C000A8441202E7
:10033300A7D000C000A8431202A7D000C000A84263
:100343001202A7D000C000A8411202A7D000C0002B
:10035300A8401202A7D0002275840075850075910C
:100363000075920075A40075A50075B10075B20003
:100373002275817F12035B12027375A40075A500B9
:10038300C297780112028E788012028EE95403F527
:100393003B785512028E893AD297C297780112029E
:1003A3008E789012028EE95403F53D785512028E31
:1003B300893CD2971202CD853A30853B31753200A4
:1003C30075330075349A753501753600753700122B
:1003D300017D7534FF7535037536007537001202DC
:1003E3000A7534117535017536007537001200E949
:1003F300120003853C30853D3175320075330012A0
:10040300000312032D740D1202BD740A1202BD22E1
:00000001FF
