:03000000020D8668
:0100030032CA
:03000B0002062EBC
:0100130032BA
:03001B0002065981
:0100230032AA
:03005B000206B6E4
:10005E00C0E0C0D0C000C001C002E4F540F541F5DB
:10006E0042F543F5447A20E533A2E779047830E689
:10007E0033F608D9FA79057840E636D4F608D9F978
:10008E00DAE5D002D001D000D0D0D0E022C0E0C05E
:10009E00D0C000C001C002E4F540F541F542F54381
:1000AE00F5447A20E533A2E779047830E633F60892
:1000BE00D9FA79057840C0D0E6243320E70224D05F
:1000CE0020E30224FDD0D033F608D9EADAD6D002E6
:1000DE00D001D000D0D0D0E022C0E0C0D0C000C04F
:1000EE0001C0027A207905C37844E613C0D030E708
:1000FE000224D030E30224FDF618D0D0D9EC7904D6
:10010E007833E613F618D9FADADBD002D001D00034
:10011E00D0D0D0E022C0E0C0D0E5302534F530E5B7
:10012E00313535F531E5323536F532E5333537F5DE
:10013E0033D0D0D0E022C0E0C0D0C3E5309534F546
:10014E0030E5319535F531E5329536F532E53395B5
:10015E0037F533D0D0D0E022C0E0C0D0C3E5309523
:10016E0034E5319535E5329536E53395379202D043
:10017E00D0D0E022C0E0C0D0C3E5349530E535954F
:10018E0031E5369532E53795339202D0D0D0E02264
:10019E00C0E0C0D0C202C3E53495307014E5359589
:1001AE0031700EE53695327008E53795337002D210
:1001BE0002D0D0D0E02212019E2002030201822240
:1001CE0012019E20020302016622C0E0C0F0C0D0E0
:1001DE00C000C001C002C003E5308534F0A4F8A908
:1001EE00F0E5318534F0A429F9E435F0FAE53085EF
:1001FE0035F0A429F9E5F03AFAE433FBE53285341B
:10020E00F0A42AFAE5F03BFBE5318535F0A42AFA95
:10021E00E5F03BFBE5308536F0A42AFAE5F03BFB32
:10022E00E5338534F0A42BFBE5328535F0A42BFBAA
:10023E00E5318536F0A42BFBE5308537F0A42BFB9A
:10024E008B338A3289318830D003D002D001D0006E
:10025E00D0D0D0F0D0E022C0E0C0D0C000C001C0ED
:10026E0002C003C0047C20E4F8F9FAFBC3E5303386
:10027E00F530E53133F531E53233F532E53333F52B
:10028E0033E833F8E933F9EA33FAEB33FBC3E89595
:10029E0034E99535EA9536EB95374013E89534F801
:1002AE00E99535F9EA9536FAEB9537FB433001DCE3
:1002BE00BBD004D003D002D001D000D0D0D0E022E9
:1002CE00C000784AD8FED00022C000C001790A785A
:1002DE00B8D8FED9FADAF6D001D00022D2871202AF
:1002EE00CEC2871202CE22A2E79296A2E69294A2E4
:1002FE00E59293A2E492921202EAA2E39296A2E20D
:10030E009294A2E19293A2E092921202EA22D285F4
:10031E000202F5C2850202F5C287C286C0027A28A1
:10032E001202D7D0027433120321743312032174D4
:10033E00321203217428120321740C12032174014A
:10034E00120321C0027A021202D7D00222E4936075
:10035E000612031CA380F62244404480020321C0EF
:10036E00E0E8C4540F443012031CE8540F4430121A
:10037E00031CD0E022C0E0E8C4540F4430120457EE
:10038E00E8540F4430120457D0E0220D0A0020200A
:10039E00202020200D0A0020202020202020202098
:1003AE0020202020202020002020202020205465E6
:1003BE00737432202020202000202020202020486E
:1003CE004F5420202020202020003A0074696D65B3
:1003DE000031004243445F636F756E7465723A205C
:1003EE007878200054656D703A00430054696D654D
:1003FE002078783A787820534554202000202053D6
:10040E004F414B20205245464C4F572020005465FB
:10041E006D70002A5245464C4F572A0054696D653F
:10042E0000484F4D450054656D7000202A534F41D2
:10043E004B2A0054696D652020202020202020208A
:10044E0020202000484F4D450010990280FBF59961
:10045E002210980280FBE599227AAC79FA78A6D818
:10046E00FED9FADAF62230313233343536373839AE
:10047E00414243444546900474E541C4540F9312DF
:10048E000457E541540F93120457742E120457E586
:10049E0040C4540F93120457E540540F931204575F
:1004AE00740D120457740A12045722E49360061254
:1004BE000457A380F6220D0A00C0E074051412033F
:1004CE0068D0E0C000A84112036DD000C0E07407F0
:1004DE0014120368D0E0C000A84012036DD000C013
:1004EE00E0740814120368D0E0C000A8441203831D
:1004FE00D000C000A843120383D000C000A842124F
:10050E000383D000C000A841120383D000C000A80E
:10051E0040120383D000C0E0740A14120368D0E0C6
:10052E00C083C082C0E09003F812035BD0E0D0829B
:10053E00D0832275840075850075910075920075C3
:10054E00A40075A50075B10075B2002275BD0075C9
:10055E00BF0075BE3075BD037598527591007592CA
:10056E000022C0E079007A08E833F892A6D2A4A25D
:10057E00A5E933F9C2A4DAF0D0E022C2A7780112BD
:10058E0005707880120570E95403F53B7855120515
:10059E0070893AD2A7C2A778011205707890120519
:1005AE0070E95403F53D7855120570893CD2A78544
:1005BE003C30853D317532007533007534647535C8
:1005CE00007536007537001201D875345E7535002A
:1005DE0075360075370012012375345C753501755B
:1005EE00360075370012026575341A75350075368A
:1005FE000075370012012312005E7445C000F81218
:10060E000383D000300C05C20C1204C722E58954B6
:10061E00F04401F589758C6F758AFFD2A9D28C22B0
:10062E00758C6F758AFFC0E0C0D00561E561B4328C
:10063E0002D20CD0D0D0E032E589540F4410F589A7
:10064E00758D6F758BFFD2ABD28E22758D6F758BBC
:10065E00FFC0E0C0D00560E560954ED45005D28154
:10066E00C38005C281C38000E560B4641F054CE5FC
:10067E004CD4F54C0569E569D4F569E54C85E06621
:10068E00D203756000E55A2401D4F55AD0D0D0E0DB
:10069E003275CDFE75CCB275CFFE75CEB275F980C2
:1006AE0075C980D2ECD2C82275E900C0E0C0D0E591
:1006BE006245634564601574FF1562B56207156384
:1006CE00B5630215641206FBF5F58006C2C8D29713
:1006DE00C2B1D0D0D0E03243841043851075A1282A
:1006EE0075970475F5802222D2A5C2A422F5E3E502
:1006FE00E130E7FBF5E1E5E322C29774061206FB53
:10070E00D29722C29774051206FB74551206FBD2BD
:10071E009720E0EF22C0E075F00A84443012031CEB
:10072E00E5F0443012031CD0E02200002D0031070A
:10073E0000700700ADB900F2660135D5017D3301B9
:10074E00C7610212790249C1028F7A02D063031B7C
:10075E008703630E03B95F04113A0466C404C01222
:10076E000526980574E905D28E061D83066342069A
:10077E00AAB906F3D6073F020030DA003F00003D6B
:10078E00B20044AD00436F00475E004A2E004B1886
:10079E000037480045B90040E9004B240047870068
:1007AE0056510057DB00558A00594E006686004EA2
:1007BE0051005DA5004AF50045BF00477700491D71
:1007CE00004B2C005C87D2B1C2C8D29775F003A43F
:1007DE00F8C29774031206FB900738E8931206FBD3
:1007EE00A3E8931206FBA3E8931206FB900786E894
:1007FE0093F564A3E893F563A3E893F5627400128E
:10080E0006FBD2C822E567B4001330000FC3E565BE
:10081E0094145005756701800375670322B40109AE
:10082E00E5651207D475670222B4020720C8037566
:10083E00670622B4030FE56575F00A8424121207C9
:10084E00D475670422B4040720C80375670522B463
:10085E000511E56575F00A84E5F060031207D4759D
:10086E00670222B4060974181207D475670722B4FA
:10087E00071320C80FC3E5669414500575670880EA
:10088E009B75670A22B40809E5661207D4756709D5
:10089E0022B4090720C80375670D22B40A0FE56656
:1008AE0075F00A8424121207D475670B22B40B0755
:1008BE0020C80375670C22B40C11E56675F00A8426
:1008CE00E5F060031207D475670922B40D09741997
:1008DE001207D475670E22B40E0920C805C2007522
:1008EE00670022756700C20022C0E0740114120373
:1008FE0068D0E0C083C082C0E09003F212035BD0E8
:10090E00E0D082D08322C28EE4756000F55AD28E7A
:10091E0022C0E0740114120366D0E0C083C082C00E
:10092E00E09003FA12035BD0E0D082D083C203C002
:10093E00E0740914120366D0E0C000A85A12036DC9
:10094E00D000C0E0740614120366D0E0C000A865A3
:10095E0012036DD00022E55AB4600AE5652401D475
:10096E00F56512091422E565B4600AC28EE475605D
:10097E0000F565D28E22208418C0027A321202D778
:10098E00D00220840C3084FD755A00756500120962
:10099E001F30030912096412097412091F1208F795
:1009AE0022208311C0027A0A1202D7D002208305B8
:1009BE003083FDB209200906120A8C0209CF120AF1
:1009CE00D5C0E0740514120368D0E0C000A851121F
:1009DE00036DD000C0E0740714120368D0E0C000AD
:1009EE00A85212036DD000C0E0740114120368D037
:1009FE00E0C083C082C0E090041C12035BD0E0D044
:100A0E0082D083C0E0740914120368D0E0C083C0A2
:100A1E0082C0E090042112035BD0E0D082D083C06C
:100A2E00E0740114120366D0E0C083C082C0E0906F
:100A3E00042A12035BD0E0D082D083C0E0740C1481
:100A4E00120366D0E0C083C082C0E090042F120370
:100A5E005BD0E0D082D083C0E0740914120366D05C
:100A6E00E0C000A85612036DD000C0E07407141247
:100A7E000366D0E0C000A85512036DD0002220827C
:100A8E0021C0027A0A1202D7D0022082153082FDCE
:100A9E00E5562401D4F556E5567007E5552401D4E4
:100AAE00F55520A021C0027A0A1202D7D00220A04A
:100ABE001530A0FDE5562499D4F556E5567007E598
:100ACE00552499D4F55522208221C0027A0A1202A9
:100ADE00D7D0022082153082FDE5522401D4F55282
:100AEE00E5527007E5512401D4F55120A021C00232
:100AFE007A0A1202D7D00220A01530A0FDE55224AA
:100B0E0099D4F552E5527007E5512499D4F5512246
:100B1E00208311C0027A0A1202D7D0022083053038
:100B2E0083FDB20A200A06120BFB020B3E120C4486
:100B3E00C0E0740514120368D0E0C000A85312037D
:100B4E006DD000C0E0740714120368D0E0C000A896
:100B5E005412036DD000C0E0740114120368D0E08B
:100B6E00C083C082C0E090043412035BD0E0D08218
:100B7E00D083C0E0740914120368D0E0C083C08231
:100B8E00C0E090043912035BD0E0D082D083C0E085
:100B9E00740114120366D0E0C083C082C0E09004DA
:100BAE004112035BD0E0D082D083C0E0740C1412EB
:100BBE000366D0E0C083C082C0E090045212035B93
:100BCE00D0E0D082D083C0E0740914120366D0E066
:100BDE00C000A85812036DD000C0E07407141203B1
:100BEE0066D0E0C000A85712036DD00022208221EB
:100BFE00C0027A0A1202D7D0022082153082FDE599
:100C0E00582401D4F558E5587007E5572401D4F55A
:100C1E005720A021C0027A0A1202D7D00220A015B6
:100C2E0030A0FDE5582499D4F558E5587007E557DE
:100C3E002499D4F55722208221C0027A0A1202D7B3
:100C4E00D0022082153082FDE5542401D4F554E5FE
:100C5E00547007E5532401D4F55320A021C0027A25
:100C6E000A1202D7D00220A01530A0FDE554249917
:100C7E00D4F554E5547007E5532499D4F55322C0A6
:100C8E00E0740114120368D0E0C083C082C0E0900B
:100C9E00040B12035BD0E0D082D083C0E074011449
:100CAE00120366D0E0C083C082C0E09003A5120399
:100CBE005BD0E0D082D08322E54AB4001E2083159B
:100CCE00C0027A0A1202D7D0022083093083FD7542
:100CDE004A01020CE6120984020D85B4014B120C76
:100CEE008D12096412097420A112C0027A0A12022E
:100CFE00D7D00220A10630A1FD754A00208212C075
:100D0E00027A0A1202D7D0022082063082FD754A7C
:100D1E000220A012C0027A0A1202D7D00220A00628
:100D2E0030A0FD754A03020D85B402211209AF12DF
:100D3E00096412097420A112C0027A0A1202D7D0D5
:100D4E000220A10630A1FD754A00020D85B40303F1
:100D5E00020D64020CC8120B1E12096412097420D3
:100D6E00A112C0027A0A1202D7D00220A10630A127
:100D7E00FD754A00020D852275817F12061B120633
:100D8E00461205411203261206F51206E512069FBB
:100D9E001206F6D2AFC20075670075840075850025
:100DAE0075910075920075A40075A50075B100755A
:100DBE00B200756600D203C20C755A00754E0075EE
:100DCE004C00754900754B967546057547DC7545A3
:100DDE0005756900755C00755D00756500754A00E6
:100DEE00C208755101755250C20975570075585099
:100DFE00755500755650755301755101755250C297
:100E0E000975570075585075550075565075530134
:100E1E00755101755250C209755700755850755568
:100E2E0000755650755301755101755250C20975B2
:100E3E0057007558507555007556507553017551BC
:100E4E0001755250C2097557007558507555007589
:100E5E005650755301755101755250C209755700A0
:100E6E00755850755500755650755301755101756D
:100E7E005250C20975570075585075550075565029
:100E8E00755301755450C20B12054112055A75A4C3
:100E9E000075A500120CC6120813208414C0027A25
:100EAE00321202D7D0022084083084FDC28E020E88
:100EBE00A2120589E549B40013754E00C28E20B00A
:100ECE000830B0FDD28E754901020EA2B4011A751A
:100EDE004E64754C00C3E5549541500AC3E55395D5
:100EEE00405003754902020EA2B40210754E14C38F
:100EFE00E557954C5003754903020EA2B4031C75B9
:100F0E004E00754C00C3E5529541500CC3E551950A
:100F1E004050055003754904020EA2B40410754EDC
:100F2E0028E548C3954C5003754905020EA2B40539
:0F0F3E0085754E64C3954B5003754900020EA292
:00000001FF
