:03000000020C18D7
:0100030032CA
:03000B0002046785
:0100130032BA
:03001B000204924A
:0100230032AA
:03005B000204EFAD
:10005E00C0E0C0D0C000C001C002E4F53CF53DF5E3
:10006E003EF53FF5407A20E537A2E779047834E68D
:10007E0033F608D9FA7905783CE636D4F608D9F97C
:10008E00DAE5D002D001D000D0D0D0E022C0E0C05E
:10009E00D0C000C001C002E4F53CF53DF53EF53F91
:1000AE00F5407A20E537A2E779047834E633F6088E
:1000BE00D9FA7905783CC0D0E6243320E70224D063
:1000CE0020E30224FDD0D033F608D9EADAD6D002E6
:1000DE00D001D000D0D0D0E022C0E0C0D0C000C04F
:1000EE0001C0027A207905C37840E613C0D030E70C
:1000FE000224D030E30224FDF618D0D0D9EC7904D6
:10010E007837E613F618D9FADADBD002D001D00030
:10011E00D0D0D0E022C0E0C0D0E5342538F534E5AB
:10012E00353539F535E536353AF536E537353BF5BE
:10013E0037D0D0D0E022C0E0C0D0C3E5349538F53A
:10014E0034E5359539F535E536953AF536E5379595
:10015E003BF537D0D0D0E022C0E0C0D0C3E5349517
:10016E0038E5359539E536953AE537953B9202D027
:10017E00D0D0E022C0E0C0D0C3E5389534E5399543
:10018E0035E53A9536E53B95379202D0D0D0E02250
:10019E00C0E0C0D0C202C3E53895347014E539957D
:1001AE0035700EE53A95367008E53B95377002D2FC
:1001BE0002D0D0D0E02212019E2002030201822240
:1001CE0012019E20020302016622C0E0C0F0C0D0E0
:1001DE00C000C001C002C003E5348538F0A4F8A900
:1001EE00F0E5358538F0A429F9E435F0FAE53485E3
:1001FE0039F0A429F9E5F03AFAE433FBE53685380F
:10020E00F0A42AFAE5F03BFBE5358539F0A42AFA8D
:10021E00E5F03BFBE534853AF0A42AFAE5F03BFB2A
:10022E00E5378538F0A42BFBE5368539F0A42BFB9A
:10023E00E535853AF0A42BFBE534853BF0A42BFB8A
:10024E008B378A3689358834D003D002D001D0005E
:10025E00D0D0D0F0D0E022C0E0C0D0C000C001C0ED
:10026E0002C003C0047C20E4F8F9FAFBC3E5343382
:10027E00F534E53533F535E53633F536E53733F513
:10028E0037E833F8E933F9EA33FAEB33FBC3E89591
:10029E0038E99539EA953AEB953B4013E89538F8ED
:1002AE00E99539F9EA953AFAEB953BFB433401DCD3
:1002BE00BBD004D003D002D001D000D0D0D0E022E9
:1002CE00C000784AD8FED00022C000C001790A785A
:1002DE00B8D8FED9FADAF6D001D00022D2871202AF
:1002EE00CEC2871202CE22A2E79296A2E69294A2E4
:1002FE00E59293A2E492921202EAA2E39296A2E20D
:10030E009294A2E19293A2E092921202EA22D285F4
:10031E000202F5C2850202F5C287C286C0027A28A1
:10032E001202D7D0027433120321743312032174D4
:10033E00321203217428120321740C12032174014A
:10034E00120321C0027A021202D7D00222E4936075
:10035E000612031CA380F62244404480020321C0EF
:10036E00E0E8C4540F443012031CE8540F4430121A
:10037E00031CD0E022C0E0E8C4540F4430120677CC
:10038E00E8540F4430120677D0E0220D0A002020E8
:10039E00202020200D0A0020202020202020202098
:1003AE0020202020202020002020202020205465E6
:1003BE00737432202020202000202020202020486E
:1003CE004F5420202020202020003A0074696D65B3
:1003DE000031004243445F636F756E7465723A205C
:1003EE007878200054656D703A7878784320202014
:1003FE00202020200054696D652078783A78782086
:10040E005345542020002020534F414B202052456D
:10041E00464C4F5720200054656D70002A524546B9
:10042E004C4F572A0054696D6500484F4D45005496
:10043E00656D7000202A534F414B2A0054696D653B
:10044E0000484F4D4500E58954F04401F589758CFF
:10045E006F758AFFD2A9D28C22758C6F758AFFC0F8
:10046E00E0C0D00559E559B43202D20CD0D0D0E05C
:10047E0032E589540F4410F589758D6F758BFFD257
:10048E00ABD28E22758D6F758BFFC0E0C0D0055834
:10049E00E558954AD45005D281C38005C281C380E8
:1004AE0000E558B4C81F0548E548D4F5480561E590
:1004BE0061D4F561E54885E05ED203755800E552DA
:1004CE002401D4F552D0D0D0E03275CDFE75CCB229
:1004DE0075CFFE75CEB275F98075C980D2ECD2C8D3
:1004EE002275E900C0E0C0D0E55A455B455C601559
:1004FE0074FF155AB55A07155BB55B02155C1205EC
:10050E005FF5F58006C2C8D2A4C2A7D0D0D0E03223
:10051E0075840075850075910075920075A400753F
:10052E00A50075B10075B200224384104385107585
:10053E00A12875970475F5802290FFDEE04408F03F
:10054E002253A4CB43A53443A40853A5F775E2D098
:10055E0022F5E3E5E130E7FBF5E1E5E322C2A47421
:10056E000612055FD2A422C2A4740512055F74554B
:10057E0012055FD2A420E0EF22C0E075F00A844499
:10058E003012031CE5F0443012031CD0E0220000B0
:10059E002D00310700700700ADB900F2660135D5A8
:1005AE00017D3301C7610212790249C1028F7A02BD
:1005BE00D063031B8703630E03B95F04113A04660D
:1005CE00C404C0120526980574E905D28E061D8353
:1005DE0006634206AAB906F3D6073F020030DA00D8
:1005EE003F00003DB20044AD00436F00475E004A3D
:1005FE002E004B180037480045B90040E9004B2447
:10060E000047870056510057DB00558A00594E00AF
:10061E006686004E51005DA5004AF50045BF0047B5
:10062E007700491D004B2C005C87D2A7C2C8D2A40C
:10063E0075F003A4F8C2A4740312055F90059CE83C
:10064E009312055FA3E89312055FA3E89312055F6B
:10065E009005EAE893F55CA3E893F55BA3E893F5C0
:10066E005A740012055FD2C8223099FDC299F599CD
:10067E0022E55FB4001330000FC3E55D94145005FE
:10068E00755F018003755F0322B40109E55D1206F3
:10069E0038755F0222B4020720C803755F0622B4C4
:1006AE00030FE55D75F00A842412120638755F0497
:1006BE0022B4040720C803755F0522B40511E55D59
:1006CE0075F00A84E5F06003120638755F0222B4F5
:1006DE0006097418120638755F0722B4071320C86E
:1006EE000FC3E55E94145005755F08809B755F0A15
:1006FE0022B40809E55E120638755F0922B40907AF
:10070E0020C803755F0D22B40A0FE55E75F00A84EA
:10071E002412120638755F0B22B40B0720C803751E
:10072E005F0C22B40C11E55E75F00A84E5F06003EF
:10073E00120638755F0922B40D0974191206387540
:10074E005F0E22B40E0920C805C200755F00227527
:10075E005F00C20022C0E0740114120368D0E0C032
:10076E0083C082C0E09003F212035BD0E0D082D04F
:10077E008322C28EE4755800F552D28E22C0E074E8
:10078E000114120366D0E0C083C082C0E09004035F
:10079E0012035BD0E0D082D083C203C20CC0E074DF
:1007AE000914120366D0E0C000A85212036DD000E7
:1007BE00C0E0740614120366D0E0C000A85D1203F8
:1007CE006DD00022E552B4600AE55D2401D4F55DDA
:1007DE0012078022E55DB4600AC28EE4755800F5FA
:1007EE005DD28E22755200755D0012078B300C099A
:1007FE001207D21207E212078B1207632220A211F0
:10080E00C0027A0A1202D7D00220A20530A2FDB28F
:10081E000920090612090402082B12094CC0E074C3
:10082E000514120368D0E0C000A84D12036DD0006D
:10083E00C0E0740714120368D0E0C000A84E120383
:10084E006DD000C0E0740114120368D0E0C083C004
:10085E0082C0E090042512035BD0E0D082D083C02A
:10086E00E0740914120368D0E0C083C082C0E09027
:10087E00042A12035BD0E0D082D083C0E07401144E
:10088E00120366D0E0C083C082C0E090043312032E
:10089E005BD0E0D082D083C0E0740814120366D01F
:1008AE00E0C083C082C0E09003D812035BD0E0D0DA
:1008BE0082D083C0E0740C14120366D0E0C083C0F3
:1008CE0082C0E090043812035BD0E0D082D083C0A7
:1008DE00E0740914120366D0E0C000A85412036D30
:1008EE00D000C0E0740614120366D0E0C000A85514
:1008FE0012036DD0002220A124C0027A0A1202D760
:10090E00D00220A11830A1FDE554B4590BE55524B1
:10091E0001D4F555E40209292401D4F55420A01D73
:10092E00C0027A0A1202D7D00220A01130A0FDE533
:10093E0054B40004E40209492499D4F5542220A1A8
:10094E0021C0027A0A1202D7D00220A11530A1FDD1
:10095E00E54E2401D4F54EE54E7007E54D2401D445
:10096E00F54D20A021C0027A0A1202D7D00220A093
:10097E001530A0FDE54E2499D4F54EE54E7007E5F1
:10098E004D2499D4F54D2220A211C0027A0A1202EA
:10099E00D7D00220A20530A2FDB20A200A06120A02
:1009AE008E0209B5120AD6C0E0740514120368D07F
:1009BE00E0C000A84F12036DD000C0E074071412FF
:1009CE000368D0E0C000A85012036DD000C0E074E0
:1009DE000114120368D0E0C083C082C0E090043DD1
:1009EE0012035BD0E0D082D083C0E07409141203EE
:1009FE0068D0E0C083C082C0E090044212035BD096
:100A0E00E0D082D083C0E0740114120366D0E0C03F
:100A1E0083C082C0E090044A12035BD0E0D082D043
:100A2E0083C0E0740814120366D0E0C083C082C095
:100A3E00E09003D812035BD0E0D082D083C0E07484
:100A4E000C14120366D0E0C083C082C0E090044F45
:100A5E0012035BD0E0D082D083C0E074091412037D
:100A6E0066D0E0C000A85612036DD000C0E0740638
:100A7E0014120366D0E0C000A85712036DD00022F6
:100A8E0020A124C0027A0A1202D7D00220A1183067
:100A9E00A1FDE556B4590BE5572401D4F557E402F0
:100AAE000AB32401D4F55620A01DC0027A0A120200
:100ABE00D7D00220A01130A0FDE556B40004E40208
:100ACE000AD32499D4F5562220A121C0027A0A1203
:100ADE0002D7D00220A11530A1FDE5502401D4F596
:100AEE0050E5507007E54F2401D4F54F20A021C0EA
:100AFE00027A0A1202D7D00220A01530A0FDE550CE
:100B0E002499D4F550E5507007E54F2499D4F54F4C
:100B1E0022C0E0740114120368D0E0C083C082C00A
:100B2E00E090041412035BD0E0D082D083C0E07456
:100B3E000114120366D0E0C083C082C0E09003A50A
:100B4E0012035BD0E0D082D08322E546B4001E2093
:100B5E00A215C0027A0A1202D7D00220A20930A230
:100B6E00FD754601020B781207F2020C17B4014B09
:100B7E00120B1F1207D21207E2209712C0027A0A36
:100B8E001202D7D0022097063097FD75460020A19D
:100B9E0012C0027A0A1202D7D00220A10630A1FD9D
:100BAE0075460220A012C0027A0A1202D7D0022085
:100BBE00A00630A0FD754603020C17B402211208E0
:100BCE000B1207D21207E2209712C0027A0A120203
:100BDE00D7D0022097063097FD754600020C17B449
:100BEE000303020BF6020B5A1209951207D21207D3
:100BFE00E2209712C0027A0A1202D7D0022097067C
:100C0E003097FD754600020C172275817F12045431
:100C1E0012047F12051E1203261205471205371203
:100C2E0004D812054FD2AFC200755F0075840075EF
:100C3E00850075910075920075A40075A50075B1BB
:100C4E000075B200755E00D203D20C755200754A63
:100C5E00007548007545007547967542057543DC6D
:100C6E00754105756100755400755500755D00750B
:100C7E004600C208754D01754E50C2097556007575
:100C8E005700754F01755050C20B120B5812067F4C
:100C9E00E545B40013754A00C28E20B00830B0FD91
:100CAE00D28E754501020C98B40113754A647548CD
:100CBE0000E541C395475003754502020C98B402F6
:100CCE0010754A14E542C395485003754503020C4E
:100CDE0098B40313754A50754800E543C3954750C1
:100CEE0003754504020C98B40410754A14E544C308
:100CFE0095485003754505020C98B40595754A0044
:0B0D0E00C395475003754500020C9888
:00000001FF
