:0300000002070FE5
:0100030032CA
:03000B0002037B72
:0100130032BA
:01001B0032B2
:0100230032AA
:03002B0002039736
:10002E00C0E0C0D0C000C001C002E4F53CF53DF513
:10003E003EF53FF5407A20E537A2E779047834E6BD
:10004E0033F608D9FA7905783CE636D4F608D9F9AC
:10005E00DAE5D002D001D000D0D0D0E022C0E0C08E
:10006E00D0C000C001C002E4F53CF53DF53EF53FC1
:10007E00F5407A20E537A2E779047834E633F608BE
:10008E00D9FA7905783CC0D0E6243320E70224D093
:10009E0020E30224FDD0D033F608D9EADAD6D00216
:1000AE00D001D000D0D0D0E022C0E0C0D0C000C07F
:1000BE0001C0027A207905C37840E613C0D030E73C
:1000CE000224D030E30224FDF618D0D0D9EC790406
:1000DE007837E613F618D9FADADBD002D001D00061
:1000EE00D0D0D0E022C0E0C0D0E5342538F534E5DC
:1000FE00353539F535E536353AF536E537353BF5EF
:10010E0037D0D0D0E022C0E0C0D0C3E5349538F56A
:10011E0034E5359539F535E536953AF536E53795C5
:10012E003BF537D0D0D0E022C0E0C0D0C3E5349547
:10013E0038E5359539E536953AE537953B9200D059
:10014E00D0D0E022C0E0C0D0C3E5389534E5399573
:10015E0035E53A9536E53B95379200D0D0D0E02282
:10016E00C0E0C0D0C200C3E53895347014E53995AF
:10017E0035700EE53A95367008E53B95377002D22C
:10018E0000D0D0D0E02212016E20000302015222D4
:10019E0012016E20000302013622C0E0C0F0C0D072
:1001AE00C000C001C002C003E5348538F0A4F8A930
:1001BE00F0E5358538F0A429F9E435F0FAE5348513
:1001CE0039F0A429F9E5F03AFAE433FBE53685383F
:1001DE00F0A42AFAE5F03BFBE5358539F0A42AFABE
:1001EE00E5F03BFBE534853AF0A42AFAE5F03BFB5B
:1001FE00E5378538F0A42BFBE5368539F0A42BFBCB
:10020E00E535853AF0A42BFBE534853BF0A42BFBBA
:10021E008B378A3689358834D003D002D001D0008E
:10022E00D0D0D0F0D0E022C0E0C0D0C000C001C01D
:10023E0002C003C0047C20E4F8F9FAFBC3E53433B2
:10024E00F534E53533F535E53633F536E53733F543
:10025E0037E833F8E933F9EA33FAEB33FBC3E895C1
:10026E0038E99539EA953AEB953B4013E89538F81D
:10027E00E99539F9EA953AFAEB953BFB433401DC03
:10028E00BBD004D003D002D001D000D0D0D0E02219
:10029E00C00078B10000D8FCD00022C000C00179A7
:1002AE002D78A6D8FED9FADAF6D001D00022D29354
:1002BE0012029EC29322A2E792B5A2E692B4A2E5E2
:1002CE0092B3A2E492B21202BC12029EA2E392B5C3
:1002DE00A2E292B4A2E192B3A2E092B21202BC22C6
:1002EE00D2910202C4C2910202C4C293C29274336A
:1002FE001202F374331202F374321202F3742812E0
:10030E0002F3740C1202F374011202F3C0027A02A9
:10031E001202A9D00222E49360061202EEA380F626
:10032E0022444044800202F3C0E0E8C4540F44303B
:10033E001202EEE8540F44301202EED0E022C0E07A
:10034E00E8C4540F44301203E0E8540F4430120353
:10035E00E0D0E022E58954F04401F589758CEA7508
:10036E008AE875F4EA75F2E8D2A9D28C22B2B732D5
:10037E0075C80075CDA975CC9A75CBA975CA9AE4C6
:10038E00F54AF54BD2ADD2CA22C2CFB2B6C0E0C04A
:10039E00D0054AE54A7002054BE54AB4E817E54B2D
:1003AE00B40312D201B28CE4F54AF54BE54C2401AC
:1003BE008000D4F54CD0D0D0E03279DE78A6D8FECD
:1003CE00D9FA438780759852759B00759AF4759B80
:1003DE001E223099FDC299F599223098FDC298E5FA
:1003EE009922E49360061203E0A380F622D2A2C201
:1003FE00A322C0E079007A08E833F892A1D2A3A232
:10040E00A2E933F9C2A3DAF0D0E0227AB279FA780F
:10041E00A6D8FED9FADAF62275817F75C700B2B773
:10042E00C0E0740114120331D0E0C083C082C0E07A
:10043E009004BF120324D0E0D082D083C0E07401B8
:10044E001412032FD0E0C083C082C0E09004BF120C
:10045E000324D0E0D082D083C0E0740114120331A3
:10046E00D0E0C083C082C0E09004E1120324D0E04B
:10047E00D082D083C0E074011412032FD0E0C08369
:10048E00C082C0E09004E1120324D0E0D082D08379
:10049E00120419220D0A002020202020200D0A000F
:1004AE0054656D703A7878784320202020202020E3
:1004BE00002020202020202020202020202020204E
:1004CE00200020202020202054657374322020200C
:1004DE00202000202020202020484F5420202020A3
:1004EE002020200054696D652078783A7878205362
:1004FE0045542020003A002020534F414B202052DB
:10050E0045464C4F5720200054656D703A58585848
:10051E002A5245464C4F572A0054696D652058584B
:10052E003A585820484F4D45200085303485313596
:10053E007536007537002275389A753901753A008F
:10054E00753B001201A87538FF753903753A0075B1
:10055E003B00120235753811753901753A00753B3D
:10056E000012011412002E1203C8C0E074011412FE
:10057E000331D0E0C083C082C0E09004AE120324E9
:10058E00D0E0D082D0831203F0C0E07405141203C1
:10059E0031D0E0C000A83D12034CD000C000A83DF1
:1005AE00120336D000C0E0740714120331D0E0C03D
:1005BE0000A83C12034CD000C000A83C120336D059
:1005CE0000C0E0740514120331D0E0C083C082C0B5
:1005DE00E0900503120324D0E0D082D0831203F002
:1005EE009004A21203F022C2A078011204007880B7
:1005FE00120400E95403F53178551204008930D203
:10060E00A0120538E53C22C2CAE4F54AF54BF54C7A
:10061E00D2CA22C0E074011412032FD0E0C083C0EE
:10062E0082C0E09004F2120324D0E0D082D083C2C4
:10063E0001C0E074091412032FD0E0C000A84C12C0
:10064E000336D000C0E074061412032FD0E0C000B1
:10065E00A84D120336D00022E54CB4600AE54D24B5
:10066E0001D4F54D12061522E54DB4600BC2CAE455
:10067E00F54AF54BF54DD2CA223001091206661223
:10068E0006761206211205F512054512041922C02E
:10069E00E0740114120331D0E0C083C082C0E09038
:1006AE000516120324D0E0D082D083C0E07401146A
:1006BE0012032FD0E0C083C082C0E0900527120342
:1006CE0024D0E0D082D08322C0E074011412033112
:1006DE00D0E0C083C082C0E0900505120324D0E0B4
:1006EE00D082D083C0E074011412032FD0E0C083F7
:1006FE00C082C0E09004BF120324D0E0D082D08329
:10070E002275817F1202F81203FB12036212037E1E
:10071E00D2AFD201754C00754D00754600C206E58C
:10072E0046B4001E20A515C0027A0A1202A9D002F4
:10073E0020A50930A5FD75460102074D1206870258
:10074E00072DB4014B1206D612066612067620A7A6
:10075E0012C0027A0A1202A9D00220A70630A7FD03
:10076E0075460020A412C0027A0A1202A9D00220F5
:10077E00A40630A4FD75460220A612C0027A0A1203
:10078E0002A9D00220A60630A6FD75460302072D4B
:10079E00B4022112069D12066612067620A712C01A
:1007AE00027A0A1202A9D00220A70630A7FD7546CA
:1007BE000002072DB403030207CB02072FC0E0741B
:1007CE000114120331D0E0C083C082C0E09004D087
:1007DE00120324D0E0D082D083C0E074011412033F
:1007EE002FD0E0C083C082C0E09004D0120324D08A
:1007FE00E0D082D08312066612067620A712C002BF
:10080E007A0A1202A9D00220A70630A7FD7546006B
:03081E0002072DA1
:00000001FF
