:030000000205DF17
:0100030032CA
:03000B0002037B72
:0100130032BA
:01001B0032B2
:0100230032AA
:03002B0002039736
:10002E00C0E0C0D0C000C001C002E4F53CF53DF513
:10003E003EF53FF5407A20E537A2E779047834E6BD
:10004E0033F608D9FA7905783CE636D4F608D9F9AC
:10005E00DAE5D002D001D000D0D0D0E022C0E0C08E
:10006E00D0C000C001C002E4F53CF53DF53EF53FC1
:10007E00F5407A20E537A2E779047834E633F608BE
:10008E00D9FA7905783CC0D0E6243320E70224D093
:10009E0020E30224FDD0D033F608D9EADAD6D00216
:1000AE00D001D000D0D0D0E022C0E0C0D0C000C07F
:1000BE0001C0027A207905C37840E613C0D030E73C
:1000CE000224D030E30224FDF618D0D0D9EC790406
:1000DE007837E613F618D9FADADBD002D001D00061
:1000EE00D0D0D0E022C0E0C0D0E5342538F534E5DC
:1000FE00353539F535E536353AF536E537353BF5EF
:10010E0037D0D0D0E022C0E0C0D0C3E5349538F56A
:10011E0034E5359539F535E536953AF536E53795C5
:10012E003BF537D0D0D0E022C0E0C0D0C3E5349547
:10013E0038E5359539E536953AE537953B9200D059
:10014E00D0D0E022C0E0C0D0C3E5389534E5399573
:10015E0035E53A9536E53B95379200D0D0D0E02282
:10016E00C0E0C0D0C200C3E53895347014E53995AF
:10017E0035700EE53A95367008E53B95377002D22C
:10018E0000D0D0D0E02212016E20000302015222D4
:10019E0012016E20000302013622C0E0C0F0C0D072
:1001AE00C000C001C002C003E5348538F0A4F8A930
:1001BE00F0E5358538F0A429F9E435F0FAE5348513
:1001CE0039F0A429F9E5F03AFAE433FBE53685383F
:1001DE00F0A42AFAE5F03BFBE5358539F0A42AFABE
:1001EE00E5F03BFBE534853AF0A42AFAE5F03BFB5B
:1001FE00E5378538F0A42BFBE5368539F0A42BFBCB
:10020E00E535853AF0A42BFBE534853BF0A42BFBBA
:10021E008B378A3689358834D003D002D001D0008E
:10022E00D0D0D0F0D0E022C0E0C0D0C000C001C01D
:10023E0002C003C0047C20E4F8F9FAFBC3E53433B2
:10024E00F534E53533F535E53633F536E53733F543
:10025E0037E833F8E933F9EA33FAEB33FBC3E895C1
:10026E0038E99539EA953AEB953B4013E89538F81D
:10027E00E99539F9EA953AFAEB953BFB433401DC03
:10028E00BBD004D003D002D001D000D0D0D0E02219
:10029E00C00078B10000D8FCD00022C000C00179A7
:1002AE002D78A6D8FED9FADAF6D001D00022D29354
:1002BE0012029EC29322A2E792B5A2E692B4A2E5E2
:1002CE0092B3A2E492B21202BC12029EA2E392B5C3
:1002DE00A2E292B4A2E192B3A2E092B21202BC22C6
:1002EE00D2910202C4C2910202C4C293C29274336A
:1002FE001202F374331202F374321202F3742812E0
:10030E0002F3740C1202F374011202F3C0027A02A9
:10031E001202A9D00222E49360061202EEA380F626
:10032E0022444044800202F3C0E0E8C4540F44303B
:10033E001202EEE8540F44301202EED0E022C0E07A
:10034E00E8C4540F44301203E5E8540F443012034E
:10035E00E5D0E022E58954F04401F589758CEA7503
:10036E008AE875F4EA75F2E8D2A9D28C22B2B732D5
:10037E0075C80075CDA975CC9A75CBA975CA9AE4C6
:10038E00F549F54AD2ADD2CA22C2CFB2B6C0E0C04C
:10039E00D00549E5497002054AE549B4E81CE54A2D
:1003AE00B40317D201B28CE4F549F54AE54B30801F
:1003BE0004240180022499D4F54BD0D0D0E03279B8
:1003CE00DE78A6D8FED9FA438780759852759B00C1
:1003DE00759AF4759B1E223099FDC299F5992230BB
:1003EE0098FDC298E59922E49360061203E5A38076
:1003FE00F622D2A2C2A322C0E079007A08E833F82E
:10040E0092A1D2A3A2A2E933F9C2A3DAF0D0E022DC
:10041E007AB279FA78A6D8FED9FADAF62275817F01
:10042E0075C700B2B7C0E0740114120331D0E0C03A
:10043E0083C082C0E09004BD120324D0E0D082D0ED
:10044E0083C0E074011412032FD0E0C083C082C0B9
:10045E00E09004BD120324D0E0D082D083C0E074BB
:10046E000114120331D0E0C083C082C0E09004CEEC
:10047E00120324D0E0D082D083C0E07401141203A2
:10048E002FD0E0C083C082C0E09004CE120324D0EF
:10049E00E0D082D08312041E220D0A0020202020DC
:1004AE0020200D0A0054656D702078782A430020B4
:1004BE00202020202020202020202020202020004E
:1004CE00202020202020484F542020202020202093
:1004DE000054696D652000853034853135753600E0
:1004EE007537002275389A753901753A00753B00DB
:1004FE001201A87538FF753903753A00753B001265
:10050E000235753811753901753A00753B001201C7
:10051E001412002E1203CDC0E0740114120331D058
:10052E00E0C083C082C0E09004B3120324D0E0D0B8
:10053E0082D083C000A83D12034CD000C0E07406E8
:10054E0014120331D0E0C000A83C12034CD000C0FE
:10055E0000A83C120336D0001203F59004A7120334
:10056E00F522C2A078011204057880120405E95420
:10057E0003F53178551204058930D2A01204E5E551
:10058E003C22E4F549F54AF54BD2CA12059D22C22A
:10059E0001C0E0740E1412032FD0E0C000A84B125D
:1005AE000336D000C0E074011412032FD0E0C083D4
:1005BE00C082C0E09004DF120324D0E0D082D0834A
:1005CE002230010312059D1205701204F212041E50
:1005DE002275817F75817F12036212037ED2AFD2A4
:1005EE0001754B001202F8120400C0E074011412DF
:1005FE000331D0E0C083C082C0E09004BD1203245A
:10060E00D0E0D082D083C0E074011412032FD0E06A
:10061E00C083C082C0E09004BD120324D0E0D0821B
:08062E00D0831205CF0205F88C
:00000001FF
