:030000000208E310
:0100030032CA
:03000B000203826B
:0100130032BA
:01001B0032B2
:0100230032AA
:03002B0002039E2F
:10002E00C0E0C0D0C000C001C002E4F53CF53DF513
:10003E003EF53FF5407A20E537A2E779047834E6BD
:10004E0033F608D9FA7905783CE636D4F608D9F9AC
:10005E00DAE5D002D001D000D0D0D0E022C0E0C08E
:10006E00D0C000C001C002E4F53CF53DF53EF53FC1
:10007E00F5407A20E537A2E779047834E633F608BE
:10008E00D9FA7905783CC0D0E6243320E70224D093
:10009E0020E30224FDD0D033F608D9EADAD6D00216
:1000AE00D001D000D0D0D0E022C0E0C0D0C000C07F
:1000BE0001C0027A207905C37840E613C0D030E73C
:1000CE000224D030E30224FDF618D0D0D9EC790406
:1000DE007837E613F618D9FADADBD002D001D00061
:1000EE00D0D0D0E022C0E0C0D0E5342538F534E5DC
:1000FE00353539F535E536353AF536E537353BF5EF
:10010E0037D0D0D0E022C0E0C0D0C3E5349538F56A
:10011E0034E5359539F535E536953AF536E53795C5
:10012E003BF537D0D0D0E022C0E0C0D0C3E5349547
:10013E0038E5359539E536953AE537953B9200D059
:10014E00D0D0E022C0E0C0D0C3E5389534E5399573
:10015E0035E53A9536E53B95379200D0D0D0E02282
:10016E00C0E0C0D0C200C3E53895347014E53995AF
:10017E0035700EE53A95367008E53B95377002D22C
:10018E0000D0D0D0E02212016E20000302015222D4
:10019E0012016E20000302013622C0E0C0F0C0D072
:1001AE00C000C001C002C003E5348538F0A4F8A930
:1001BE00F0E5358538F0A429F9E435F0FAE5348513
:1001CE0039F0A429F9E5F03AFAE433FBE53685383F
:1001DE00F0A42AFAE5F03BFBE5358539F0A42AFABE
:1001EE00E5F03BFBE534853AF0A42AFAE5F03BFB5B
:1001FE00E5378538F0A42BFBE5368539F0A42BFBCB
:10020E00E535853AF0A42BFBE534853BF0A42BFBBA
:10021E008B378A3689358834D003D002D001D0008E
:10022E00D0D0D0F0D0E022C0E0C0D0C000C001C01D
:10023E0002C003C0047C20E4F8F9FAFBC3E53433B2
:10024E00F534E53533F535E53633F536E53733F543
:10025E0037E833F8E933F9EA33FAEB33FBC3E895C1
:10026E0038E99539EA953AEB953B4013E89538F81D
:10027E00E99539F9EA953AFAEB953BFB433401DC03
:10028E00BBD004D003D002D001D000D0D0D0E02219
:10029E00C000784AD8FED00022C000C001790A788A
:1002AE00B8D8FED9FADAF6D001D00022D2931202D3
:1002BE009EC29312029E22A2E792B5A2E692B4A229
:1002CE00E592B3A2E492B21202BAA2E392B5A2E20E
:1002DE0092B4A2E192B3A2E092B21202BA22D291E9
:1002EE000202C5C2910202C5C293C292C0027A280E
:1002FE001202A7D00274331202F174331202F17497
:10030E00321202F174281202F1740C1202F174010D
:10031E001202F1C0027A021202A7D00222E4936006
:10032E00061202ECA380F622444044800202F1C081
:10033E00E0E8C4540F44301202ECE8540F4430127B
:10034E0002ECD0E022C0E0E8C4540F44301203E7C0
:10035E00E8540F44301203E7D0E022E58954F0440C
:10036E0001F589758CEA758AE875F4EA75F2E8D2BA
:10037E00A9D28C22B2B73275C80075CDA975CC9AA8
:10038E0075CBA975CA9AE4F54AF54BD2ADD2CA22FD
:10039E00C2CFB2B6C0E0C0D0054AE54A7002054BE6
:1003AE00E54AB4E817E54BB40312D201B28CE4F57A
:1003BE004AF54BE54F24018000D4F54FD0D0D0E064
:1003CE003279DE78A6D8FED9FA43878075985275B1
:1003DE009B00759AF4759B1E223099FDC299F59972
:1003EE00223098FDC298E59922E49360061203E745
:1003FE00A380F622D2A2C2A322C0E079007A08E836
:10040E0033F892A1D2A3A2A2E933F9C2A3DAF0D0B3
:10041E00E0227AB279FA78A6D8FED9FADAF62275FF
:10042E00817F75C700B2B7C0E0740114120338D0D3
:10043E00E0C083C082C0E09004C612032BD0E0D08F
:10044E0082D083C0E0740114120336D0E0C083C0A2
:10045E0082C0E09004C612032BD0E0D082D083C0BD
:10046E00E0740114120338D0E0C083C082C0E09063
:10047E0004E812032BD0E0D082D083C0E0740114C4
:10048E00120336D0E0C083C082C0E09004E81203AD
:10049E002BD0E0D082D083120420220D0A0020201F
:1004AE00202020200D0A0054656D703A787878432C
:1004BE00202020202020200020202020202020204E
:1004CE00202020202020202000202020202020540A
:1004DE006573743220202020200020202020202030
:1004EE00484F54202020202020200054696D652084
:1004FE0078783A7878205345542020003A0020200E
:10050E00534F414B20205245464C4F57202000540C
:10051E00656D70002A5245464C4F572A0054696D3E
:10052E006500484F4D4500853034853135753600B0
:10053E007537002275389A753901753A00753B008A
:10054E001201A87538FF753903753A00753B001214
:10055E000235753811753901753A00753B00120177
:10056E001412002E1203CFC0E0740114120338D0FF
:10057E00E0C083C082C0E09004B512032BD0E0D05F
:10058E0082D0831203F7C0E0740514120338D0E052
:10059E00C000A83D120353D000C000A83D12033D79
:1005AE00D000C0E0740714120338D0E0C000A83C9D
:1005BE00120353D000C000A83C12033DD000C0E08F
:1005CE00740514120338D0E0C083C082C0E09005D9
:1005DE000A12032BD0E0D082D0831203F79004A925
:1005EE001203F722C2A078011204077880120407C2
:1005FE00E95403F53178551204078930D2A012055B
:10060E0035E53C22C2CAE4F54AF54BF54FD2CA2273
:10061E00C0E0740114120336D0E0C083C082C0E083
:10062E009004F912032BD0E0D082D083C201C0E037
:10063E00740914120336D0E0C000A84F12033DD047
:10064E0000C0E0740614120336D0E0C000A85012A9
:10065E00033DD00022E54FB4600AE5502401D4F5E5
:10066E005012061222E550B4600BC2CAE4F54AF5E8
:10067E004BF550D2CA2230010912066312067312CC
:10068E00061E1205F21205421204202220A511C0E8
:10069E00027A0A1202A7D00220A50530A5FDB207E4
:1006AE002007061207930206BA1207DBC0E0740594
:1006BE0014120338D0E0C000A84C12033DD000C085
:1006CE00E0740714120338D0E0C000A84D12033DA9
:1006DE00D000C0E0740114120338D0E0C083C08291
:1006EE00C0E090051D12032BD0E0D082D083C0E075
:1006FE00740914120338D0E0C083C082C0E09005A4
:10070E002212032BD0E0D082D083C0E074011412E9
:10071E000336D0E0C083C082C0E090052B12032BBD
:10072E00D0E0D082D083C0E0740814120336D0E03B
:10073E00C083C082C0E090050A12032BD0E0D082A5
:10074E00D083C0E0740C14120336D0E0C083C08294
:10075E00C0E090053012032BD0E0D082D083C0E0F1
:10076E00740914120336D0E0C000A85212033DD013
:10077E0000C0E0740614120336D0E0C000A8531275
:10078E00033DD0002220A424C0027A0A1202A7D070
:10079E000220A41830A4FDE552B4590BE5532401F0
:1007AE00D4F553E40207B82401D4F55220A61DC097
:1007BE00027A0A1202A7D00220A61130A6FDE55237
:1007CE00B40004E40207D82499D4F5522220A4647C
:1007DE00C0027A321202A7D00220A45830A40FC051
:1007EE00027AC81202A7D00230A403020842C0E067
:1007FE00740514120338D0E0C000A84C12033DD08B
:10080E0000C0E0740714120338D0E0C000A84D12E7
:10081E00033DD000C0027A641202A7D002E54D2437
:10082E0001D4F54DE54D7009E54C2401D4F54CE5A8
:10083E004D0207EA20A664C0027A321202A7D00245
:10084E0020A65830A60FC0027A641202A7D002303A
:10085E00A6030208A9C0E0740514120338D0E0C044
:10086E0000A84C12033DD000C0E0740714120338E8
:10087E00D0E0C000A84D12033DD000C0027A641231
:10088E0002A7D002E54D2499D4F54DE54D7009E54A
:10089E004C2499D4F54CE54D02085122C0E0740168
:1008AE0014120338D0E0C083C082C0E090050C1251
:1008BE00032BD0E0D082D083C0E074011412033633
:1008CE00D0E0C083C082C0E09004C612032BD0E0FB
:1008DE00D082D0832275817F1202F6120402120397
:1008EE0069120385D2AFD201754F00755200755350
:1008FE0000755000754600C206754C01754D50C20C
:10090E0007E546B4001E20A515C0027A0A1202A7FA
:10091E00D00220A50930A5FD75460102092F120649
:10092E008402090FB4014B1208AA12066312067351
:10093E0020A712C0027A0A1202A7D00220A7063000
:10094E00A7FD75460020A412C0027A0A1202A7D093
:10095E000220A40630A4FD75460220A612C0027A1B
:10096E000A1202A7D00220A60630A6FD7546030283
:10097E00090FB4022112069A12066312067320A7FB
:10098E0012C0027A0A1202A7D00220A70630A7FDD3
:10099E0075460002090FB403030209AD020911C026
:1009AE00E0740114120338D0E0C083C082C0E0901E
:1009BE0004D712032BD0E0D082D083C0E074011490
:1009CE00120336D0E0C083C082C0E09004D7120379
:1009DE002BD0E0D082D08312066312067320A712AA
:1009EE00C0027A0A1202A7D00220A70630A7FD7510
:0509FE00460002090F94
:00000001FF
