:03000000020BC32D
:0100030032CA
:03000B0002037B72
:0100130032BA
:01001B0032B2
:0100230032AA
:03002B0002039736
:10002E00C0E0C0D0C000C001C002E4F53CF53DF513
:10003E003EF53FF5407A20E537A2E779047834E6BD
:10004E0033F608D9FA7905783CE636D4F608D9F9AC
:10005E00DAE5D002D001D000D0D0D0E022C0E0C08E
:10006E00D0C000C001C002E4F53CF53DF53EF53FC1
:10007E00F5407A20E537A2E779047834E633F608BE
:10008E00D9FA7905783CC0D0E6243320E70224D093
:10009E0020E30224FDD0D033F608D9EADAD6D00216
:1000AE00D001D000D0D0D0E022C0E0C0D0C000C07F
:1000BE0001C0027A207905C37840E613C0D030E73C
:1000CE000224D030E30224FDF618D0D0D9EC790406
:1000DE007837E613F618D9FADADBD002D001D00061
:1000EE00D0D0D0E022C0E0C0D0E5342538F534E5DC
:1000FE00353539F535E536353AF536E537353BF5EF
:10010E0037D0D0D0E022C0E0C0D0C3E5349538F56A
:10011E0034E5359539F535E536953AF536E53795C5
:10012E003BF537D0D0D0E022C0E0C0D0C3E5349547
:10013E0038E5359539E536953AE537953B9200D059
:10014E00D0D0E022C0E0C0D0C3E5389534E5399573
:10015E0035E53A9536E53B95379200D0D0D0E02282
:10016E00C0E0C0D0C200C3E53895347014E53995AF
:10017E0035700EE53A95367008E53B95377002D22C
:10018E0000D0D0D0E02212016E20000302015222D4
:10019E0012016E20000302013622C0E0C0F0C0D072
:1001AE00C000C001C002C003E5348538F0A4F8A930
:1001BE00F0E5358538F0A429F9E435F0FAE5348513
:1001CE0039F0A429F9E5F03AFAE433FBE53685383F
:1001DE00F0A42AFAE5F03BFBE5358539F0A42AFABE
:1001EE00E5F03BFBE534853AF0A42AFAE5F03BFB5B
:1001FE00E5378538F0A42BFBE5368539F0A42BFBCB
:10020E00E535853AF0A42BFBE534853BF0A42BFBBA
:10021E008B378A3689358834D003D002D001D0008E
:10022E00D0D0D0F0D0E022C0E0C0D0C000C001C01D
:10023E0002C003C0047C20E4F8F9FAFBC3E53433B2
:10024E00F534E53533F535E53633F536E53733F543
:10025E0037E833F8E933F9EA33FAEB33FBC3E895C1
:10026E0038E99539EA953AEB953B4013E89538F81D
:10027E00E99539F9EA953AFAEB953BFB433401DC03
:10028E00BBD004D003D002D001D000D0D0D0E02219
:10029E00C00078B10000D8FCD00022C000C00179A7
:1002AE002D78A6D8FED9FADAF6D001D00022D29354
:1002BE0012029EC29322A2E792B5A2E692B4A2E5E2
:1002CE0092B3A2E492B21202BC12029EA2E392B5C3
:1002DE00A2E292B4A2E192B3A2E092B21202BC22C6
:1002EE00D2910202C4C2910202C4C293C29274336A
:1002FE001202F374331202F374321202F3742812E0
:10030E0002F3740C1202F374011202F3C0027A02A9
:10031E001202A9D00222E49360061202EEA380F626
:10032E0022444044800202F3C0E0E8C4540F44303B
:10033E001202EEE8540F44301202EED0E022C0E07A
:10034E00E8C4540F4430120483E8540F44301204AE
:10035E0083D0E022E58954F04401F589758CEA7565
:10036E008AE875F4EA75F2E8D2A9D28C22B2B732D5
:10037E0075C80075CDA975CC9A75CBA975CA9AE4C6
:10038E00F54AF54BD2ADD2CA22C2CFB2B6C0E0C04A
:10039E00D0054AE54A7002054BE54AB4E817E54B2D
:1003AE00B40312D201B28CE4F54AF54BE5512401A7
:1003BE008000D4F551D0D0D0E0320D0A002020209C
:1003CE002020200D0A0054656D703A78787843200D
:1003DE00202020202020002020202020202020202F
:1003EE0020202020202020002020202020205465A6
:1003FE00737432202020202000202020202020482E
:10040E004F54202020202020200054696D65207834
:10041E00783A7878205345542020003A0020205313
:10042E004F414B20205245464C4F572020005465DB
:10043E006D70002A5245464C4F572A0054696D651F
:10044E0000484F4D450054656D7000202A534F41B2
:10045E004B2A0054696D6500484F4D450079DE7892
:10046E00A6D8FED9FA438780759852759B00759A67
:10047E00F4759B1E223099FDC299F599223098FD94
:10048E00C298E59922E4936006120483A380F622B3
:10049E00D2A2C2A322C0E079007A08E833F892A172
:1004AE00D2A3A2A2E933F9C2A3DAF0D0E0227AB243
:1004BE0079FA78A6D8FED9FADAF62275817F75C751
:1004CE0000B2B7C0E0740114120331D0E0C083C093
:1004DE0082C0E09003E5120324D0E0D082D083C026
:1004EE00E074011412032FD0E0C083C082C0E090EC
:1004FE0003E5120324D0E0D082D083C0E07401144F
:10050E00120331D0E0C083C082C0E0900407120312
:10051E0024D0E0D082D083C0E074011412032FD017
:10052E00E0C083C082C0E0900407120324D0E0D064
:10053E0082D0831204BC2285303485313575360065
:10054E007537002275389A753901753A00753B007A
:10055E001201A87538FF753903753A00753B001204
:10056E000235753811753901753A00753B00120167
:10057E001412002E12046BC0E0740114120331D059
:10058E00E0C083C082C0E09003D4120324D0E0D038
:10059E0082D083120493C0E0740514120331D0E0AC
:1005AE00C000A83D12034CD000C000A83D12033677
:1005BE00D000C0E0740714120331D0E0C000A83C94
:1005CE0012034CD000C000A83C120336D000C0E08D
:1005DE00740514120331D0E0C083C082C0E09004D1
:1005EE0029120324D0E0D082D0831204939003C842
:1005FE0012049322C2A078011204A378801204A3DD
:10060E00E95403F53178551204A38930D2A01205AE
:10061E0045E53C22C2CAE4F54AF54BF551D2CA2251
:10062E00C0E074011412032FD0E0C083C082C0E07A
:10063E00900418120324D0E0D082D083C201C0E00F
:10064E0074091412032FD0E0C000A851120336D043
:10065E0000C0E074061412032FD0E0C000A852129E
:10066E000336D00022E551B4600AE5522401D4F5D8
:10067E005212062222E552B4600BC2CAE4F54AF5C4
:10068E004BF552D2CA22300109120673120683129A
:10069E00062E1206021205521204BC2220A511C00B
:1006AE00027A0A1202A9D00220A50530A5FDB207D2
:1006BE002007061207A30206CA1207EBC0E0740554
:1006CE0014120331D0E0C000A84C120336D000C083
:1006DE00E0740714120331D0E0C000A84D120336A7
:1006EE00D000C0E0740114120331D0E0C083C08288
:1006FE00C0E090043C120324D0E0D082D083C0E04E
:10070E00740914120331D0E0C083C082C0E090049B
:10071E0041120324D0E0D082D083C0E074011412C1
:10072E00032FD0E0C083C082C0E090044A1203249D
:10073E00D0E0D082D083C0E074081412032FD0E032
:10074E00C083C082C0E0900429120324D0E0D0827E
:10075E00D083C0E0740C1412032FD0E0C083C0828B
:10076E00C0E090044F120324D0E0D082D083C0E0CA
:10077E0074091412032FD0E0C000A854120336D00F
:10078E0000C0E074061412032FD0E0C000A855126A
:10079E000336D0002220A424C0027A0A1202A9D065
:1007AE000220A41830A4FDE554B4590BE5552401DC
:1007BE00D4F555E40207C82401D4F55420A61DC073
:1007CE00027A0A1202A9D00220A61130A6FDE55423
:1007DE00B40004E40207E82499D4F5542220A4645A
:1007EE00C0027A321202A9D00220A45830A40FC03F
:1007FE00027A641202A9D00230A403020852C0E0A9
:10080E00740514120331D0E0C000A84C120336D088
:10081E0000C0E0740714120331D0E0C000A84D12DE
:10082E000336D000C0027A641202A9D002E54D242C
:10083E0001D4F54DE54D7009E54C2401D4F54CE598
:10084E004D0207FA20A664C0027A321202A9D00223
:10085E0020A65830A60FC0027A641202A9D0023028
:10086E00A6030208B9C0E0740514120331D0E0C02B
:10087E0000A84C120336D000C0E0740714120331E6
:10088E00D0E0C000A84D120336D000C0027A641228
:10089E0002A9D002E54D2499D4F54DE54D7009E538
:1008AE004C2499D4F54CE54D0208612220A511C0C7
:1008BE00027A0A1202A9D00220A50530A5FDB208BF
:1008CE002008061209B30208DA1209FBC0E074050B
:1008DE0014120331D0E0C000A84E120336D000C06F
:1008EE00E0740714120331D0E0C000A84F12033693
:1008FE00D000C0E0740114120331D0E0C083C08276
:10090E00C0E0900454120324D0E0D082D083C0E023
:10091E00740914120331D0E0C083C082C0E0900489
:10092E0059120324D0E0D082D083C0E07401141297
:10093E00032FD0E0C083C082C0E090046112032474
:10094E00D0E0D082D083C0E074081412032FD0E020
:10095E00C083C082C0E0900429120324D0E0D0826C
:10096E00D083C0E0740C1412032FD0E0C083C08279
:10097E00C0E0900466120324D0E0D082D083C0E0A1
:10098E0074091412032FD0E0C000A856120336D0FB
:10099E0000C0E074061412032FD0E0C000A8571256
:1009AE000336D0002220A424C0027A0A1202A9D053
:1009BE000220A41830A4FDE556B4590BE5572401C6
:1009CE00D4F557E40209D82401D4F55620A61DC04B
:1009DE00027A0A1202A9D00220A61130A6FDE5560F
:1009EE00B40004E40209F82499D4F5562220A46434
:1009FE00C0027A321202A9D00220A45830A40FC02D
:100A0E00027A641202A9D00230A403020A62C0E084
:100A1E00740514120331D0E0C000A84E120336D074
:100A2E0000C0E0740714120331D0E0C000A84F12CA
:100A3E000336D000C0027AC81202A9D002E54F24B4
:100A4E0001D4F54FE54F7009E54E2401D4F54EE57E
:100A5E004F020A0A20A664C0027A321202A9D002FC
:100A6E0020A65830A60FC0027A641202A9D0023016
:100A7E00A603020AC9C0E0740514120331D0E0C007
:100A8E0000A84E120336D000C0E0740714120331D2
:100A9E00D0E0C000A84F120336D000C0027A641214
:100AAE0002A9D002E54F2499D4F54FE54F7009E520
:100ABE004E2499D4F54EE54F020A7122C0E074011E
:100ACE0014120331D0E0C083C082C0E090042B1218
:100ADE000324D0E0D082D083C0E074011412032F1F
:100AEE00D0E0C083C082C0E09003E5120324D0E0C2
:100AFE00D082D08322E546B4001E20A515C0027A0E
:100B0E000A1202A9D00220A50930A5FD75460102E0
:100B1E000B23120694020BC2B4014B120ACA120620
:100B2E007312068320A712C0027A0A1202A9D002FB
:100B3E0020A70630A7FD75460020A412C0027A0A2F
:100B4E001202A9D00220A40630A4FD75460220A6EA
:100B5E0012C0027A0A1202A9D00220A60630A6FD01
:100B6E00754603020BC2B402211206AA12067312B4
:100B7E00068320A712C0027A0A1202A9D00220A769
:100B8E000630A7FD754600020BC2B40303020BA18B
:100B9E00020B051208BA12067312068320A712C0A2
:100BAE00027A0A1202A9D00220A70630A7FD7546C6
:100BBE0000020BC22275817F1202F812049E1203EC
:100BCE006212037ED2AFD201755100755400755575
:100BDE0000755200754600C206754C01754D50C227
:100BEE0007755600755700754E01754F50120B0361
:030BFE00020BFBEC
:00000001FF
